{
  "_format": "hh-sol-artifact-1",
  "contractName": "landregistry",
  "sourceName": "contracts/landregistry.sol",
  "abi": [
    {
      "inputs": [],
      "stateMutability": "nonpayable",
      "type": "constructor"
    },
    {
      "inputs": [
        {
          "internalType": "address",
          "name": "",
          "type": "address"
        }
      ],
      "name": "InspectorMapping",
      "outputs": [
        {
          "internalType": "uint256",
          "name": "id",
          "type": "uint256"
        },
        {
          "internalType": "address",
          "name": "_addr",
          "type": "address"
        },
        {
          "internalType": "string",
          "name": "name",
          "type": "string"
        },
        {
          "internalType": "uint256",
          "name": "age",
          "type": "uint256"
        },
        {
          "internalType": "string",
          "name": "designation",
          "type": "string"
        },
        {
          "internalType": "string",
          "name": "city",
          "type": "string"
        }
      ],
      "stateMutability": "view",
      "type": "function"
    },
    {
      "inputs": [
        {
          "internalType": "uint256",
          "name": "",
          "type": "uint256"
        }
      ],
      "name": "LandRequestMapping",
      "outputs": [
        {
          "internalType": "uint256",
          "name": "reqId",
          "type": "uint256"
        },
        {
          "internalType": "address payable",
          "name": "sellerId",
          "type": "address"
        },
        {
          "internalType": "address payable",
          "name": "buyerId",
          "type": "address"
        },
        {
          "internalType": "uint256",
          "name": "landId",
          "type": "uint256"
        },
        {
          "internalType": "enum landregistry.reqStatus",
          "name": "requestStatus",
          "type": "uint8"
        },
        {
          "internalType": "bool",
          "name": "isPaymentDone",
          "type": "bool"
        }
      ],
      "stateMutability": "view",
      "type": "function"
    },
    {
      "inputs": [],
      "name": "ReturnAllLandIncpectorList",
      "outputs": [
        {
          "internalType": "address[]",
          "name": "",
          "type": "address[]"
        }
      ],
      "stateMutability": "view",
      "type": "function"
    },
    {
      "inputs": [],
      "name": "ReturnAllLandList",
      "outputs": [
        {
          "internalType": "uint256[]",
          "name": "",
          "type": "uint256[]"
        }
      ],
      "stateMutability": "view",
      "type": "function"
    },
    {
      "inputs": [],
      "name": "ReturnAllUserList",
      "outputs": [
        {
          "internalType": "address[]",
          "name": "",
          "type": "address[]"
        }
      ],
      "stateMutability": "view",
      "type": "function"
    },
    {
      "inputs": [
        {
          "internalType": "address",
          "name": "",
          "type": "address"
        }
      ],
      "name": "UserMapping",
      "outputs": [
        {
          "internalType": "address",
          "name": "id",
          "type": "address"
        },
        {
          "internalType": "string",
          "name": "name",
          "type": "string"
        },
        {
          "internalType": "uint256",
          "name": "age",
          "type": "uint256"
        },
        {
          "internalType": "string",
          "name": "city",
          "type": "string"
        },
        {
          "internalType": "string",
          "name": "cinc",
          "type": "string"
        },
        {
          "internalType": "string",
          "name": "panNumber",
          "type": "string"
        },
        {
          "internalType": "string",
          "name": "document",
          "type": "string"
        },
        {
          "internalType": "string",
          "name": "email",
          "type": "string"
        },
        {
          "internalType": "bool",
          "name": "isUserVerified",
          "type": "bool"
        }
      ],
      "stateMutability": "view",
      "type": "function"
    },
    {
      "inputs": [
        {
          "internalType": "uint256",
          "name": "_requestId",
          "type": "uint256"
        }
      ],
      "name": "acceptRequest",
      "outputs": [],
      "stateMutability": "nonpayable",
      "type": "function"
    },
    {
      "inputs": [
        {
          "internalType": "uint256",
          "name": "_area",
          "type": "uint256"
        },
        {
          "internalType": "string",
          "name": "_address",
          "type": "string"
        },
        {
          "internalType": "uint256",
          "name": "landPrice",
          "type": "uint256"
        },
        {
          "internalType": "string",
          "name": "_allLatiLongi",
          "type": "string"
        },
        {
          "internalType": "uint256",
          "name": "_propertyPID",
          "type": "uint256"
        },
        {
          "internalType": "string",
          "name": "_surveyNum",
          "type": "string"
        },
        {
          "internalType": "string",
          "name": "_document",
          "type": "string"
        }
      ],
      "name": "addLand",
      "outputs": [],
      "stateMutability": "nonpayable",
      "type": "function"
    },
    {
      "inputs": [
        {
          "internalType": "address",
          "name": "_addr",
          "type": "address"
        },
        {
          "internalType": "string",
          "name": "_name",
          "type": "string"
        },
        {
          "internalType": "uint256",
          "name": "_age",
          "type": "uint256"
        },
        {
          "internalType": "string",
          "name": "_designation",
          "type": "string"
        },
        {
          "internalType": "string",
          "name": "_city",
          "type": "string"
        }
      ],
      "name": "addLandInspector",
      "outputs": [
        {
          "internalType": "bool",
          "name": "",
          "type": "bool"
        }
      ],
      "stateMutability": "nonpayable",
      "type": "function"
    },
    {
      "inputs": [
        {
          "internalType": "address",
          "name": "_addr",
          "type": "address"
        }
      ],
      "name": "changeContractOwner",
      "outputs": [],
      "stateMutability": "nonpayable",
      "type": "function"
    },
    {
      "inputs": [],
      "name": "documentId",
      "outputs": [
        {
          "internalType": "uint256",
          "name": "",
          "type": "uint256"
        }
      ],
      "stateMutability": "view",
      "type": "function"
    },
    {
      "inputs": [
        {
          "internalType": "address",
          "name": "_addr",
          "type": "address"
        }
      ],
      "name": "isContractOwner",
      "outputs": [
        {
          "internalType": "bool",
          "name": "",
          "type": "bool"
        }
      ],
      "stateMutability": "view",
      "type": "function"
    },
    {
      "inputs": [
        {
          "internalType": "address",
          "name": "_id",
          "type": "address"
        }
      ],
      "name": "isLandInspector",
      "outputs": [
        {
          "internalType": "bool",
          "name": "",
          "type": "bool"
        }
      ],
      "stateMutability": "view",
      "type": "function"
    },
    {
      "inputs": [
        {
          "internalType": "uint256",
          "name": "id",
          "type": "uint256"
        }
      ],
      "name": "isLandVerified",
      "outputs": [
        {
          "internalType": "bool",
          "name": "",
          "type": "bool"
        }
      ],
      "stateMutability": "view",
      "type": "function"
    },
    {
      "inputs": [
        {
          "internalType": "address",
          "name": "_addr",
          "type": "address"
        }
      ],
      "name": "isUserRegistered",
      "outputs": [
        {
          "internalType": "bool",
          "name": "",
          "type": "bool"
        }
      ],
      "stateMutability": "view",
      "type": "function"
    },
    {
      "inputs": [
        {
          "internalType": "address",
          "name": "id",
          "type": "address"
        }
      ],
      "name": "isUserVerified",
      "outputs": [
        {
          "internalType": "bool",
          "name": "",
          "type": "bool"
        }
      ],
      "stateMutability": "view",
      "type": "function"
    },
    {
      "inputs": [
        {
          "internalType": "uint256",
          "name": "id",
          "type": "uint256"
        }
      ],
      "name": "landPrice",
      "outputs": [
        {
          "internalType": "uint256",
          "name": "",
          "type": "uint256"
        }
      ],
      "stateMutability": "view",
      "type": "function"
    },
    {
      "inputs": [
        {
          "internalType": "uint256",
          "name": "",
          "type": "uint256"
        }
      ],
      "name": "lands",
      "outputs": [
        {
          "internalType": "uint256",
          "name": "id",
          "type": "uint256"
        },
        {
          "internalType": "uint256",
          "name": "area",
          "type": "uint256"
        },
        {
          "internalType": "string",
          "name": "landAddress",
          "type": "string"
        },
        {
          "internalType": "uint256",
          "name": "landPrice",
          "type": "uint256"
        },
        {
          "internalType": "string",
          "name": "allLatitudeLongitude",
          "type": "string"
        },
        {
          "internalType": "uint256",
          "name": "propertyPID",
          "type": "uint256"
        },
        {
          "internalType": "string",
          "name": "physicalSurveyNumber",
          "type": "string"
        },
        {
          "internalType": "string",
          "name": "document",
          "type": "string"
        },
        {
          "internalType": "bool",
          "name": "isforSell",
          "type": "bool"
        },
        {
          "internalType": "address payable",
          "name": "ownerAddress",
          "type": "address"
        },
        {
          "internalType": "bool",
          "name": "isLandVerified",
          "type": "bool"
        }
      ],
      "stateMutability": "view",
      "type": "function"
    },
    {
      "inputs": [],
      "name": "landsCount",
      "outputs": [
        {
          "internalType": "uint256",
          "name": "",
          "type": "uint256"
        }
      ],
      "stateMutability": "view",
      "type": "function"
    },
    {
      "inputs": [
        {
          "internalType": "uint256",
          "name": "id",
          "type": "uint256"
        }
      ],
      "name": "makeItforSell",
      "outputs": [],
      "stateMutability": "nonpayable",
      "type": "function"
    },
    {
      "inputs": [
        {
          "internalType": "uint256",
          "name": "_requestId",
          "type": "uint256"
        }
      ],
      "name": "makePayment",
      "outputs": [],
      "stateMutability": "payable",
      "type": "function"
    },
    {
      "inputs": [
        {
          "internalType": "address payable",
          "name": "_reveiver",
          "type": "address"
        }
      ],
      "name": "makePaymentTestFun",
      "outputs": [],
      "stateMutability": "payable",
      "type": "function"
    },
    {
      "inputs": [
        {
          "internalType": "address",
          "name": "id",
          "type": "address"
        }
      ],
      "name": "myAllLands",
      "outputs": [
        {
          "internalType": "uint256[]",
          "name": "",
          "type": "uint256[]"
        }
      ],
      "stateMutability": "view",
      "type": "function"
    },
    {
      "inputs": [],
      "name": "myReceivedLandRequests",
      "outputs": [
        {
          "internalType": "uint256[]",
          "name": "",
          "type": "uint256[]"
        }
      ],
      "stateMutability": "view",
      "type": "function"
    },
    {
      "inputs": [],
      "name": "mySentLandRequests",
      "outputs": [
        {
          "internalType": "uint256[]",
          "name": "",
          "type": "uint256[]"
        }
      ],
      "stateMutability": "view",
      "type": "function"
    },
    {
      "inputs": [
        {
          "internalType": "string",
          "name": "_name",
          "type": "string"
        },
        {
          "internalType": "uint256",
          "name": "_age",
          "type": "uint256"
        },
        {
          "internalType": "string",
          "name": "_city",
          "type": "string"
        },
        {
          "internalType": "string",
          "name": "_cinc",
          "type": "string"
        },
        {
          "internalType": "string",
          "name": "_panNumber",
          "type": "string"
        },
        {
          "internalType": "string",
          "name": "_document",
          "type": "string"
        },
        {
          "internalType": "string",
          "name": "_email",
          "type": "string"
        }
      ],
      "name": "registerUser",
      "outputs": [],
      "stateMutability": "nonpayable",
      "type": "function"
    },
    {
      "inputs": [
        {
          "internalType": "uint256",
          "name": "_requestId",
          "type": "uint256"
        }
      ],
      "name": "rejectRequest",
      "outputs": [],
      "stateMutability": "nonpayable",
      "type": "function"
    },
    {
      "inputs": [
        {
          "internalType": "address",
          "name": "_addr",
          "type": "address"
        }
      ],
      "name": "removeLandInspector",
      "outputs": [],
      "stateMutability": "nonpayable",
      "type": "function"
    },
    {
      "inputs": [
        {
          "internalType": "uint256",
          "name": "id",
          "type": "uint256"
        }
      ],
      "name": "requesteStatus",
      "outputs": [
        {
          "internalType": "bool",
          "name": "",
          "type": "bool"
        }
      ],
      "stateMutability": "view",
      "type": "function"
    },
    {
      "inputs": [
        {
          "internalType": "uint256",
          "name": "_landId",
          "type": "uint256"
        }
      ],
      "name": "requestforBuy",
      "outputs": [],
      "stateMutability": "nonpayable",
      "type": "function"
    },
    {
      "inputs": [],
      "name": "returnPaymentDoneList",
      "outputs": [
        {
          "internalType": "uint256[]",
          "name": "",
          "type": "uint256[]"
        }
      ],
      "stateMutability": "view",
      "type": "function"
    },
    {
      "inputs": [
        {
          "internalType": "uint256",
          "name": "_requestId",
          "type": "uint256"
        },
        {
          "internalType": "string",
          "name": "documentUrl",
          "type": "string"
        }
      ],
      "name": "transferOwnership",
      "outputs": [
        {
          "internalType": "bool",
          "name": "",
          "type": "bool"
        }
      ],
      "stateMutability": "nonpayable",
      "type": "function"
    },
    {
      "inputs": [],
      "name": "userCount",
      "outputs": [
        {
          "internalType": "uint256",
          "name": "",
          "type": "uint256"
        }
      ],
      "stateMutability": "view",
      "type": "function"
    },
    {
      "inputs": [
        {
          "internalType": "uint256",
          "name": "_id",
          "type": "uint256"
        }
      ],
      "name": "verifyLand",
      "outputs": [],
      "stateMutability": "nonpayable",
      "type": "function"
    },
    {
      "inputs": [
        {
          "internalType": "address",
          "name": "_userId",
          "type": "address"
        }
      ],
      "name": "verifyUser",
      "outputs": [],
      "stateMutability": "nonpayable",
      "type": "function"
    }
  ],
  "bytecode": "0x608060405234801561001057600080fd5b50336000806101000a81548173ffffffffffffffffffffffffffffffffffffffff021916908373ffffffffffffffffffffffffffffffffffffffff16021790555061421b806100606000396000f3fe6080604052600436106102045760003560e01c8063a846fc8f11610118578063d61ff68c116100a0578063e165af871161006f578063e165af87146107bd578063e261f1e5146107fa578063edfbe24714610841578063f9c43bdf1461086a578063fa0245491461089357610204565b8063d61ff68c146106c1578063d72ca9ec14610706578063d8513de414610743578063de1176881461078057610204565b8063c6dcdc37116100e7578063c6dcdc37146105ca578063ccfdc19b14610607578063d196ebf214610630578063d251839b1461066d578063d3b368c01461069857610204565b8063a846fc8f146104f7578063ace417e014610522578063b10a30ed1461055f578063c26e11eb146105a157610204565b80634d8131201161019b5780636cbf6cf81161016a5780636cbf6cf81461041f5780637517e00f1461045c57806378f7c83f14610485578063995a8d96146104b05780639c32e3b4146104cc57610204565b80634d8131201461036d5780635114cb5214610396578063553a998d146103b257806364efa002146103dd57610204565b80632d7788db116101d75780632d7788db146102c75780633ead67b5146102f0578063499701b2146103195780634ba1f0981461034457610204565b806307973ccf14610209578063163f7522146102345780631c9afd0f1461027157806323393d771461029c575b600080fd5b34801561021557600080fd5b5061021e6108d0565b60405161022b9190613110565b60405180910390f35b34801561024057600080fd5b5061025b6004803603810190610256919061319d565b6108d6565b60405161026891906131e5565b60405180910390f35b34801561027d57600080fd5b5061028661093d565b6040516102939190613110565b60405180910390f35b3480156102a857600080fd5b506102b1610943565b6040516102be91906132be565b60405180910390f35b3480156102d357600080fd5b506102ee60048036038101906102e9919061330c565b6109ad565b005b3480156102fc57600080fd5b506103176004803603810190610312919061319d565b610a5d565b005b34801561032557600080fd5b5061032e610b2e565b60405161033b91906132be565b60405180910390f35b34801561035057600080fd5b5061036b6004803603810190610366919061330c565b610bc3565b005b34801561037957600080fd5b50610394600480360381019061038f919061319d565b610c73565b005b6103b060048036038101906103ab919061330c565b610ce3565b005b3480156103be57600080fd5b506103c7610ee3565b6040516103d491906133f7565b60405180910390f35b3480156103e957600080fd5b5061040460048036038101906103ff919061319d565b610f83565b604051610416969594939291906134b8565b60405180910390f35b34801561042b57600080fd5b506104466004803603810190610441919061330c565b611177565b60405161045391906131e5565b60405180910390f35b34801561046857600080fd5b50610483600480360381019061047e919061319d565b6111a4565b005b34801561049157600080fd5b5061049a611501565b6040516104a79190613110565b60405180910390f35b6104ca60048036038101906104c5919061356c565b611507565b005b3480156104d857600080fd5b506104e1611551565b6040516104ee91906132be565b60405180910390f35b34801561050357600080fd5b5061050c6115e6565b60405161051991906132be565b60405180910390f35b34801561052e57600080fd5b506105496004803603810190610544919061319d565b611650565b60405161055691906131e5565b60405180910390f35b34801561056b57600080fd5b506105866004803603810190610581919061330c565b6116a9565b6040516105989695949392919061361f565b60405180910390f35b3480156105ad57600080fd5b506105c860048036038101906105c3919061330c565b61173f565b005b3480156105d657600080fd5b506105f160048036038101906105ec91906137b5565b6117df565b6040516105fe91906131e5565b60405180910390f35b34801561061357600080fd5b5061062e60048036038101906106299190613884565b6119df565b005b34801561063c57600080fd5b506106576004803603810190610652919061319d565b611c43565b60405161066491906132be565b60405180910390f35b34801561067957600080fd5b50610682611cda565b60405161068f91906133f7565b60405180910390f35b3480156106a457600080fd5b506106bf60048036038101906106ba919061330c565b611d7a565b005b3480156106cd57600080fd5b506106e860048036038101906106e3919061319d565b61206f565b6040516106fd99989796959493929190613996565b60405180910390f35b34801561071257600080fd5b5061072d6004803603810190610728919061330c565b61241a565b60405161073a9190613110565b60405180910390f35b34801561074f57600080fd5b5061076a6004803603810190610765919061330c565b61243a565b60405161077791906131e5565b60405180910390f35b34801561078c57600080fd5b506107a760048036038101906107a2919061319d565b612467565b6040516107b491906131e5565b60405180910390f35b3480156107c957600080fd5b506107e460048036038101906107df919061319d565b6124d0565b6040516107f191906131e5565b60405180910390f35b34801561080657600080fd5b50610821600480360381019061081c919061330c565b612537565b6040516108389b9a99989796959493929190613a4d565b60405180910390f35b34801561084d57600080fd5b5061086860048036038101906108639190613b14565b6127eb565b005b34801561087657600080fd5b50610891600480360381019061088c919061330c565b612b15565b005b34801561089f57600080fd5b506108ba60048036038101906108b59190613c5e565b612b59565b6040516108c791906131e5565b60405180910390f35b60025481565b6000600c60008373ffffffffffffffffffffffffffffffffffffffff1673ffffffffffffffffffffffffffffffffffffffff16815260200190815260200160002060009054906101000a900460ff16156109335760019050610938565b600090505b919050565b60035481565b606060126000600181526020019081526020016000208054806020026020016040519081016040528092919081815260200182805480156109a357602002820191906000526020600020905b81548152602001906001019080831161098f575b5050505050905090565b3373ffffffffffffffffffffffffffffffffffffffff16600f600083815260200190815260200160002060010160009054906101000a900473ffffffffffffffffffffffffffffffffffffffff1673ffffffffffffffffffffffffffffffffffffffff1614610a1b57600080fd5b6002600f600083815260200190815260200160002060040160006101000a81548160ff02191690836004811115610a5557610a546135a8565b5b021790555050565b60008054906101000a900473ffffffffffffffffffffffffffffffffffffffff1673ffffffffffffffffffffffffffffffffffffffff163373ffffffffffffffffffffffffffffffffffffffff1614610aeb576040517f08c379a0000000000000000000000000000000000000000000000000000000008152600401610ae290613d06565b60405180910390fd5b806000806101000a81548173ffffffffffffffffffffffffffffffffffffffff021916908373ffffffffffffffffffffffffffffffffffffffff16021790555050565b6060601060003373ffffffffffffffffffffffffffffffffffffffff1673ffffffffffffffffffffffffffffffffffffffff168152602001908152602001600020805480602002602001604051908101604052809291908181526020018280548015610bb957602002820191906000526020600020905b815481526020019060010190808311610ba5575b5050505050905090565b3373ffffffffffffffffffffffffffffffffffffffff16600f600083815260200190815260200160002060010160009054906101000a900473ffffffffffffffffffffffffffffffffffffffff1673ffffffffffffffffffffffffffffffffffffffff1614610c3157600080fd5b6001600f600083815260200190815260200160002060040160006101000a81548160ff02191690836004811115610c6b57610c6a6135a8565b5b021790555050565b610c7c336124d0565b610c8557600080fd5b6001600960008373ffffffffffffffffffffffffffffffffffffffff1673ffffffffffffffffffffffffffffffffffffffff16815260200190815260200160002060080160006101000a81548160ff02191690831515021790555050565b3373ffffffffffffffffffffffffffffffffffffffff16600f600083815260200190815260200160002060020160009054906101000a900473ffffffffffffffffffffffffffffffffffffffff1673ffffffffffffffffffffffffffffffffffffffff16148015610d9b575060016004811115610d6357610d626135a8565b5b600f600083815260200190815260200160002060040160009054906101000a900460ff166004811115610d9957610d986135a8565b5b145b610da457600080fd5b6003600f600083815260200190815260200160002060040160006101000a81548160ff02191690836004811115610dde57610ddd6135a8565b5b0217905550600e6000600f600084815260200190815260200160002060030154815260200190815260200160002060080160019054906101000a900473ffffffffffffffffffffffffffffffffffffffff1673ffffffffffffffffffffffffffffffffffffffff166108fc349081150290604051600060405180830381858888f19350505050158015610e75573d6000803e3d6000fd5b506001600f600083815260200190815260200160002060040160016101000a81548160ff021916908315150217905550601360006001815260200190815260200160002081908060018154018082558091505060019003906000526020600020016000909190919091505550565b6060600b600060018152602001908152602001600020805480602002602001604051908101604052809291908181526020018280548015610f7957602002820191906000526020600020905b8160009054906101000a900473ffffffffffffffffffffffffffffffffffffffff1673ffffffffffffffffffffffffffffffffffffffff1681526020019060010190808311610f2f575b5050505050905090565b60066020528060005260406000206000915090508060000154908060010160009054906101000a900473ffffffffffffffffffffffffffffffffffffffff1690806002018054610fd290613d55565b80601f0160208091040260200160405190810160405280929190818152602001828054610ffe90613d55565b801561104b5780601f106110205761010080835404028352916020019161104b565b820191906000526020600020905b81548152906001019060200180831161102e57829003601f168201915b50505050509080600301549080600401805461106690613d55565b80601f016020809104026020016040519081016040528092919081815260200182805461109290613d55565b80156110df5780601f106110b4576101008083540402835291602001916110df565b820191906000526020600020905b8154815290600101906020018083116110c257829003601f168201915b5050505050908060050180546110f490613d55565b80601f016020809104026020016040519081016040528092919081815260200182805461112090613d55565b801561116d5780601f106111425761010080835404028352916020019161116d565b820191906000526020600020905b81548152906001019060200180831161115057829003601f168201915b5050505050905086565b6000600e600083815260200190815260200160002060080160159054906101000a900460ff169050919050565b60008054906101000a900473ffffffffffffffffffffffffffffffffffffffff1673ffffffffffffffffffffffffffffffffffffffff163373ffffffffffffffffffffffffffffffffffffffff1614611232576040517f08c379a000000000000000000000000000000000000000000000000000000000815260040161122990613dd2565b60405180910390fd5b600860008273ffffffffffffffffffffffffffffffffffffffff1673ffffffffffffffffffffffffffffffffffffffff16815260200190815260200160002060009054906101000a900460ff166112be576040517f08c379a00000000000000000000000000000000000000000000000000000000081526004016112b590613e3e565b60405180910390fd5b6000600860008373ffffffffffffffffffffffffffffffffffffffff1673ffffffffffffffffffffffffffffffffffffffff16815260200190815260200160002060006101000a81548160ff0219169083151502179055506000600760006001815260200190815260200160002080549050905060005b818110156114fc578273ffffffffffffffffffffffffffffffffffffffff166007600060018152602001908152602001600020828154811061137a57611379613e5e565b5b9060005260206000200160009054906101000a900473ffffffffffffffffffffffffffffffffffffffff1673ffffffffffffffffffffffffffffffffffffffff16036114e95760076000600181526020019081526020016000206001836113e19190613ebc565b815481106113f2576113f1613e5e565b5b9060005260206000200160009054906101000a900473ffffffffffffffffffffffffffffffffffffffff166007600060018152602001908152602001600020828154811061144357611442613e5e565b5b9060005260206000200160006101000a81548173ffffffffffffffffffffffffffffffffffffffff021916908373ffffffffffffffffffffffffffffffffffffffff16021790555060076000600181526020019081526020016000208054806114af576114ae613ef0565b5b6001900381819060005260206000200160006101000a81549073ffffffffffffffffffffffffffffffffffffffff021916905590556114fc565b80806114f490613f1f565b915050611335565b505050565b60045481565b8073ffffffffffffffffffffffffffffffffffffffff166108fc349081150290604051600060405180830381858888f1935050505015801561154d573d6000803e3d6000fd5b5050565b6060601160003373ffffffffffffffffffffffffffffffffffffffff1673ffffffffffffffffffffffffffffffffffffffff1681526020019081526020016000208054806020026020016040519081016040528092919081815260200182805480156115dc57602002820191906000526020600020905b8154815260200190600101908083116115c8575b5050505050905090565b6060601360006001815260200190815260200160002080548060200260200160405190810160405280929190818152602001828054801561164657602002820191906000526020600020905b815481526020019060010190808311611632575b5050505050905090565b6000600960008373ffffffffffffffffffffffffffffffffffffffff1673ffffffffffffffffffffffffffffffffffffffff16815260200190815260200160002060080160009054906101000a900460ff169050919050565b600f6020528060005260406000206000915090508060000154908060010160009054906101000a900473ffffffffffffffffffffffffffffffffffffffff16908060020160009054906101000a900473ffffffffffffffffffffffffffffffffffffffff16908060030154908060040160009054906101000a900460ff16908060040160019054906101000a900460ff16905086565b3373ffffffffffffffffffffffffffffffffffffffff16600e600083815260200190815260200160002060080160019054906101000a900473ffffffffffffffffffffffffffffffffffffffff1673ffffffffffffffffffffffffffffffffffffffff16146117ad57600080fd5b6001600e600083815260200190815260200160002060080160006101000a81548160ff02191690831515021790555050565b60006001600860008873ffffffffffffffffffffffffffffffffffffffff1673ffffffffffffffffffffffffffffffffffffffff16815260200190815260200160002060006101000a81548160ff0219169083151502179055506007600060018152602001908152602001600020869080600181540180825580915050600190039060005260206000200160009091909190916101000a81548173ffffffffffffffffffffffffffffffffffffffff021916908373ffffffffffffffffffffffffffffffffffffffff1602179055506040518060c0016040528060015481526020018773ffffffffffffffffffffffffffffffffffffffff16815260200186815260200185815260200184815260200183815250600660008873ffffffffffffffffffffffffffffffffffffffff1673ffffffffffffffffffffffffffffffffffffffff1681526020019081526020016000206000820151816000015560208201518160010160006101000a81548173ffffffffffffffffffffffffffffffffffffffff021916908373ffffffffffffffffffffffffffffffffffffffff16021790555060408201518160020190816119989190614113565b506060820151816003015560808201518160040190816119b89190614113565b5060a08201518160050190816119ce9190614113565b509050506001905095945050505050565b6119e833611650565b6119f157600080fd5b60036000815480929190611a0490613f1f565b919050555060405180610160016040528060035481526020018881526020018781526020018681526020018581526020018481526020018381526020018281526020016000151581526020013373ffffffffffffffffffffffffffffffffffffffff16815260200160001515815250600e6000600354815260200190815260200160002060008201518160000155602082015181600101556040820151816002019081611ab19190614113565b50606082015181600301556080820151816004019081611ad19190614113565b5060a0820151816005015560c0820151816006019081611af19190614113565b5060e0820151816007019081611b079190614113565b506101008201518160080160006101000a81548160ff0219169083151502179055506101208201518160080160016101000a81548173ffffffffffffffffffffffffffffffffffffffff021916908373ffffffffffffffffffffffffffffffffffffffff1602179055506101408201518160080160156101000a81548160ff021916908315150217905550905050600d60003373ffffffffffffffffffffffffffffffffffffffff1673ffffffffffffffffffffffffffffffffffffffff16815260200190815260200160002060035490806001815401808255809150506001900390600052602060002001600090919091909150556012600060018152602001908152602001600020600354908060018154018082558091505060019003906000526020600020016000909190919091505550505050505050565b6060600d60008373ffffffffffffffffffffffffffffffffffffffff1673ffffffffffffffffffffffffffffffffffffffff168152602001908152602001600020805480602002602001604051908101604052809291908181526020018280548015611cce57602002820191906000526020600020905b815481526020019060010190808311611cba575b50505050509050919050565b60606007600060018152602001908152602001600020805480602002602001604051908101604052809291908181526020018280548015611d7057602002820191906000526020600020905b8160009054906101000a900473ffffffffffffffffffffffffffffffffffffffff1673ffffffffffffffffffffffffffffffffffffffff1681526020019060010190808311611d26575b5050505050905090565b611d8333611650565b8015611d945750611d9381611177565b5b611d9d57600080fd5b60056000815480929190611db090613f1f565b91905055506040518060c001604052806005548152602001600e600084815260200190815260200160002060080160019054906101000a900473ffffffffffffffffffffffffffffffffffffffff1673ffffffffffffffffffffffffffffffffffffffff1681526020013373ffffffffffffffffffffffffffffffffffffffff16815260200182815260200160006004811115611e5057611e4f6135a8565b5b815260200160001515815250600f600060055481526020019081526020016000206000820151816000015560208201518160010160006101000a81548173ffffffffffffffffffffffffffffffffffffffff021916908373ffffffffffffffffffffffffffffffffffffffff16021790555060408201518160020160006101000a81548173ffffffffffffffffffffffffffffffffffffffff021916908373ffffffffffffffffffffffffffffffffffffffff1602179055506060820151816003015560808201518160040160006101000a81548160ff02191690836004811115611f3e57611f3d6135a8565b5b021790555060a08201518160040160016101000a81548160ff02191690831515021790555090505060106000600e600084815260200190815260200160002060080160019054906101000a900473ffffffffffffffffffffffffffffffffffffffff1673ffffffffffffffffffffffffffffffffffffffff1673ffffffffffffffffffffffffffffffffffffffff1681526020019081526020016000206005549080600181540180825580915050600190039060005260206000200160009091909190915055601160003373ffffffffffffffffffffffffffffffffffffffff1673ffffffffffffffffffffffffffffffffffffffff168152602001908152602001600020600554908060018154018082558091505060019003906000526020600020016000909190919091505550565b60096020528060005260406000206000915090508060000160009054906101000a900473ffffffffffffffffffffffffffffffffffffffff16908060010180546120b890613d55565b80601f01602080910402602001604051908101604052809291908181526020018280546120e490613d55565b80156121315780601f1061210657610100808354040283529160200191612131565b820191906000526020600020905b81548152906001019060200180831161211457829003601f168201915b50505050509080600201549080600301805461214c90613d55565b80601f016020809104026020016040519081016040528092919081815260200182805461217890613d55565b80156121c55780601f1061219a576101008083540402835291602001916121c5565b820191906000526020600020905b8154815290600101906020018083116121a857829003601f168201915b5050505050908060040180546121da90613d55565b80601f016020809104026020016040519081016040528092919081815260200182805461220690613d55565b80156122535780601f1061222857610100808354040283529160200191612253565b820191906000526020600020905b81548152906001019060200180831161223657829003601f168201915b50505050509080600501805461226890613d55565b80601f016020809104026020016040519081016040528092919081815260200182805461229490613d55565b80156122e15780601f106122b6576101008083540402835291602001916122e1565b820191906000526020600020905b8154815290600101906020018083116122c457829003601f168201915b5050505050908060060180546122f690613d55565b80601f016020809104026020016040519081016040528092919081815260200182805461232290613d55565b801561236f5780601f106123445761010080835404028352916020019161236f565b820191906000526020600020905b81548152906001019060200180831161235257829003601f168201915b50505050509080600701805461238490613d55565b80601f01602080910402602001604051908101604052809291908181526020018280546123b090613d55565b80156123fd5780601f106123d2576101008083540402835291602001916123fd565b820191906000526020600020905b8154815290600101906020018083116123e057829003601f168201915b5050505050908060080160009054906101000a900460ff16905089565b6000600e6000838152602001908152602001600020600301549050919050565b6000600f600083815260200190815260200160002060040160019054906101000a900460ff169050919050565b60008060009054906101000a900473ffffffffffffffffffffffffffffffffffffffff1673ffffffffffffffffffffffffffffffffffffffff168273ffffffffffffffffffffffffffffffffffffffff16036124c657600190506124cb565b600090505b919050565b6000600860008373ffffffffffffffffffffffffffffffffffffffff1673ffffffffffffffffffffffffffffffffffffffff16815260200190815260200160002060009054906101000a900460ff161561252d5760019050612532565b600090505b919050565b600e60205280600052604060002060009150905080600001549080600101549080600201805461256690613d55565b80601f016020809104026020016040519081016040528092919081815260200182805461259290613d55565b80156125df5780601f106125b4576101008083540402835291602001916125df565b820191906000526020600020905b8154815290600101906020018083116125c257829003601f168201915b5050505050908060030154908060040180546125fa90613d55565b80601f016020809104026020016040519081016040528092919081815260200182805461262690613d55565b80156126735780601f1061264857610100808354040283529160200191612673565b820191906000526020600020905b81548152906001019060200180831161265657829003601f168201915b50505050509080600501549080600601805461268e90613d55565b80601f01602080910402602001604051908101604052809291908181526020018280546126ba90613d55565b80156127075780601f106126dc57610100808354040283529160200191612707565b820191906000526020600020905b8154815290600101906020018083116126ea57829003601f168201915b50505050509080600701805461271c90613d55565b80601f016020809104026020016040519081016040528092919081815260200182805461274890613d55565b80156127955780601f1061276a57610100808354040283529160200191612795565b820191906000526020600020905b81548152906001019060200180831161277857829003601f168201915b5050505050908060080160009054906101000a900460ff16908060080160019054906101000a900473ffffffffffffffffffffffffffffffffffffffff16908060080160159054906101000a900460ff1690508b565b600c60003373ffffffffffffffffffffffffffffffffffffffff1673ffffffffffffffffffffffffffffffffffffffff16815260200190815260200160002060009054906101000a900460ff161561284257600080fd5b6001600c60003373ffffffffffffffffffffffffffffffffffffffff1673ffffffffffffffffffffffffffffffffffffffff16815260200190815260200160002060006101000a81548160ff021916908315150217905550600260008154809291906128ad90613f1f565b9190505550600b600060018152602001908152602001600020339080600181540180825580915050600190039060005260206000200160009091909190916101000a81548173ffffffffffffffffffffffffffffffffffffffff021916908373ffffffffffffffffffffffffffffffffffffffff16021790555033600a6000600254815260200190815260200160002060006101000a81548173ffffffffffffffffffffffffffffffffffffffff021916908373ffffffffffffffffffffffffffffffffffffffff1602179055506040518061012001604052803373ffffffffffffffffffffffffffffffffffffffff16815260200188815260200187815260200186815260200185815260200184815260200183815260200182815260200160001515815250600960003373ffffffffffffffffffffffffffffffffffffffff1673ffffffffffffffffffffffffffffffffffffffff16815260200190815260200160002060008201518160000160006101000a81548173ffffffffffffffffffffffffffffffffffffffff021916908373ffffffffffffffffffffffffffffffffffffffff1602179055506020820151816001019081612a6f9190614113565b50604082015181600201556060820151816003019081612a8f9190614113565b506080820151816004019081612aa59190614113565b5060a0820151816005019081612abb9190614113565b5060c0820151816006019081612ad19190614113565b5060e0820151816007019081612ae79190614113565b506101008201518160080160006101000a81548160ff02191690831515021790555090505050505050505050565b612b1e336124d0565b612b2757600080fd5b6001600e600083815260200190815260200160002060080160156101000a81548160ff02191690831515021790555050565b6000612b64336124d0565b612b6d57600080fd5b60001515600f600085815260200190815260200160002060040160019054906101000a900460ff16151503612ba557600090506130f1565b60046000815480929190612bb890613f1f565b91905055506004600f600085815260200190815260200160002060040160006101000a81548160ff02191690836004811115612bf757612bf66135a8565b5b0217905550600d6000600f600086815260200190815260200160002060020160009054906101000a900473ffffffffffffffffffffffffffffffffffffffff1673ffffffffffffffffffffffffffffffffffffffff1673ffffffffffffffffffffffffffffffffffffffff168152602001908152602001600020600f60008581526020019081526020016000206003015490806001815401808255809150506001900390600052602060002001600090919091909150556000600d6000600f600087815260200190815260200160002060010160009054906101000a900473ffffffffffffffffffffffffffffffffffffffff1673ffffffffffffffffffffffffffffffffffffffff1673ffffffffffffffffffffffffffffffffffffffff16815260200190815260200160002080549050905060005b81811015612fca57600f600086815260200190815260200160002060030154600d6000600f600089815260200190815260200160002060010160009054906101000a900473ffffffffffffffffffffffffffffffffffffffff1673ffffffffffffffffffffffffffffffffffffffff1673ffffffffffffffffffffffffffffffffffffffff1681526020019081526020016000208281548110612dd457612dd3613e5e565b5b906000526020600020015403612fb757600d6000600f600088815260200190815260200160002060010160009054906101000a900473ffffffffffffffffffffffffffffffffffffffff1673ffffffffffffffffffffffffffffffffffffffff1673ffffffffffffffffffffffffffffffffffffffff168152602001908152602001600020600183612e669190613ebc565b81548110612e7757612e76613e5e565b5b9060005260206000200154600d6000600f600089815260200190815260200160002060010160009054906101000a900473ffffffffffffffffffffffffffffffffffffffff1673ffffffffffffffffffffffffffffffffffffffff1673ffffffffffffffffffffffffffffffffffffffff1681526020019081526020016000208281548110612f0957612f08613e5e565b5b9060005260206000200181905550600d6000600f600088815260200190815260200160002060010160009054906101000a900473ffffffffffffffffffffffffffffffffffffffff1673ffffffffffffffffffffffffffffffffffffffff1673ffffffffffffffffffffffffffffffffffffffff168152602001908152602001600020805480612f9c57612f9b613ef0565b5b60019003818190600052602060002001600090559055612fca565b8080612fc290613f1f565b915050612d2e565b5082600e6000600f600088815260200190815260200160002060030154815260200190815260200160002060070190816130049190614113565b506000600e6000600f600088815260200190815260200160002060030154815260200190815260200160002060080160006101000a81548160ff021916908315150217905550600f600085815260200190815260200160002060020160009054906101000a900473ffffffffffffffffffffffffffffffffffffffff16600e6000600f600088815260200190815260200160002060030154815260200190815260200160002060080160016101000a81548173ffffffffffffffffffffffffffffffffffffffff021916908373ffffffffffffffffffffffffffffffffffffffff16021790555060019150505b92915050565b6000819050919050565b61310a816130f7565b82525050565b60006020820190506131256000830184613101565b92915050565b6000604051905090565b600080fd5b600080fd5b600073ffffffffffffffffffffffffffffffffffffffff82169050919050565b600061316a8261313f565b9050919050565b61317a8161315f565b811461318557600080fd5b50565b60008135905061319781613171565b92915050565b6000602082840312156131b3576131b2613135565b5b60006131c184828501613188565b91505092915050565b60008115159050919050565b6131df816131ca565b82525050565b60006020820190506131fa60008301846131d6565b92915050565b600081519050919050565b600082825260208201905092915050565b6000819050602082019050919050565b613235816130f7565b82525050565b6000613247838361322c565b60208301905092915050565b6000602082019050919050565b600061326b82613200565b613275818561320b565b93506132808361321c565b8060005b838110156132b1578151613298888261323b565b97506132a383613253565b925050600181019050613284565b5085935050505092915050565b600060208201905081810360008301526132d88184613260565b905092915050565b6132e9816130f7565b81146132f457600080fd5b50565b600081359050613306816132e0565b92915050565b60006020828403121561332257613321613135565b5b6000613330848285016132f7565b91505092915050565b600081519050919050565b600082825260208201905092915050565b6000819050602082019050919050565b61336e8161315f565b82525050565b60006133808383613365565b60208301905092915050565b6000602082019050919050565b60006133a482613339565b6133ae8185613344565b93506133b983613355565b8060005b838110156133ea5781516133d18882613374565b97506133dc8361338c565b9250506001810190506133bd565b5085935050505092915050565b600060208201905081810360008301526134118184613399565b905092915050565b6134228161315f565b82525050565b600081519050919050565b600082825260208201905092915050565b60005b83811015613462578082015181840152602081019050613447565b60008484015250505050565b6000601f19601f8301169050919050565b600061348a82613428565b6134948185613433565b93506134a4818560208601613444565b6134ad8161346e565b840191505092915050565b600060c0820190506134cd6000830189613101565b6134da6020830188613419565b81810360408301526134ec818761347f565b90506134fb6060830186613101565b818103608083015261350d818561347f565b905081810360a0830152613521818461347f565b9050979650505050505050565b60006135398261313f565b9050919050565b6135498161352e565b811461355457600080fd5b50565b60008135905061356681613540565b92915050565b60006020828403121561358257613581613135565b5b600061359084828501613557565b91505092915050565b6135a28161352e565b82525050565b7f4e487b7100000000000000000000000000000000000000000000000000000000600052602160045260246000fd5b600581106135e8576135e76135a8565b5b50565b60008190506135f9826135d7565b919050565b6000613609826135eb565b9050919050565b613619816135fe565b82525050565b600060c0820190506136346000830189613101565b6136416020830188613599565b61364e6040830187613599565b61365b6060830186613101565b6136686080830185613610565b61367560a08301846131d6565b979650505050505050565b600080fd5b600080fd5b7f4e487b7100000000000000000000000000000000000000000000000000000000600052604160045260246000fd5b6136c28261346e565b810181811067ffffffffffffffff821117156136e1576136e061368a565b5b80604052505050565b60006136f461312b565b905061370082826136b9565b919050565b600067ffffffffffffffff8211156137205761371f61368a565b5b6137298261346e565b9050602081019050919050565b82818337600083830152505050565b600061375861375384613705565b6136ea565b90508281526020810184848401111561377457613773613685565b5b61377f848285613736565b509392505050565b600082601f83011261379c5761379b613680565b5b81356137ac848260208601613745565b91505092915050565b600080600080600060a086880312156137d1576137d0613135565b5b60006137df88828901613188565b955050602086013567ffffffffffffffff811115613800576137ff61313a565b5b61380c88828901613787565b945050604061381d888289016132f7565b935050606086013567ffffffffffffffff81111561383e5761383d61313a565b5b61384a88828901613787565b925050608086013567ffffffffffffffff81111561386b5761386a61313a565b5b61387788828901613787565b9150509295509295909350565b600080600080600080600060e0888a0312156138a3576138a2613135565b5b60006138b18a828b016132f7565b975050602088013567ffffffffffffffff8111156138d2576138d161313a565b5b6138de8a828b01613787565b96505060406138ef8a828b016132f7565b955050606088013567ffffffffffffffff8111156139105761390f61313a565b5b61391c8a828b01613787565b945050608061392d8a828b016132f7565b93505060a088013567ffffffffffffffff81111561394e5761394d61313a565b5b61395a8a828b01613787565b92505060c088013567ffffffffffffffff81111561397b5761397a61313a565b5b6139878a828b01613787565b91505092959891949750929550565b6000610120820190506139ac600083018c613419565b81810360208301526139be818b61347f565b90506139cd604083018a613101565b81810360608301526139df818961347f565b905081810360808301526139f3818861347f565b905081810360a0830152613a07818761347f565b905081810360c0830152613a1b818661347f565b905081810360e0830152613a2f818561347f565b9050613a3f6101008301846131d6565b9a9950505050505050505050565b600061016082019050613a63600083018e613101565b613a70602083018d613101565b8181036040830152613a82818c61347f565b9050613a91606083018b613101565b8181036080830152613aa3818a61347f565b9050613ab260a0830189613101565b81810360c0830152613ac4818861347f565b905081810360e0830152613ad8818761347f565b9050613ae86101008301866131d6565b613af6610120830185613599565b613b046101408301846131d6565b9c9b505050505050505050505050565b600080600080600080600060e0888a031215613b3357613b32613135565b5b600088013567ffffffffffffffff811115613b5157613b5061313a565b5b613b5d8a828b01613787565b9750506020613b6e8a828b016132f7565b965050604088013567ffffffffffffffff811115613b8f57613b8e61313a565b5b613b9b8a828b01613787565b955050606088013567ffffffffffffffff811115613bbc57613bbb61313a565b5b613bc88a828b01613787565b945050608088013567ffffffffffffffff811115613be957613be861313a565b5b613bf58a828b01613787565b93505060a088013567ffffffffffffffff811115613c1657613c1561313a565b5b613c228a828b01613787565b92505060c088013567ffffffffffffffff811115613c4357613c4261313a565b5b613c4f8a828b01613787565b91505092959891949750929550565b60008060408385031215613c7557613c74613135565b5b6000613c83858286016132f7565b925050602083013567ffffffffffffffff811115613ca457613ca361313a565b5b613cb085828601613787565b9150509250929050565b7f796f7520617265206e6f7420636f6e74726163744f776e657200000000000000600082015250565b6000613cf0601983613433565b9150613cfb82613cba565b602082019050919050565b60006020820190508181036000830152613d1f81613ce3565b9050919050565b7f4e487b7100000000000000000000000000000000000000000000000000000000600052602260045260246000fd5b60006002820490506001821680613d6d57607f821691505b602082108103613d8057613d7f613d26565b5b50919050565b7f596f7520617265206e6f7420636f6e74726163744f776e657200000000000000600082015250565b6000613dbc601983613433565b9150613dc782613d86565b602082019050919050565b60006020820190508181036000830152613deb81613daf565b9050919050565b7f4c616e6420496e73706563746f72206e6f7420666f756e640000000000000000600082015250565b6000613e28601883613433565b9150613e3382613df2565b602082019050919050565b60006020820190508181036000830152613e5781613e1b565b9050919050565b7f4e487b7100000000000000000000000000000000000000000000000000000000600052603260045260246000fd5b7f4e487b7100000000000000000000000000000000000000000000000000000000600052601160045260246000fd5b6000613ec7826130f7565b9150613ed2836130f7565b9250828203905081811115613eea57613ee9613e8d565b5b92915050565b7f4e487b7100000000000000000000000000000000000000000000000000000000600052603160045260246000fd5b6000613f2a826130f7565b91507fffffffffffffffffffffffffffffffffffffffffffffffffffffffffffffffff8203613f5c57613f5b613e8d565b5b600182019050919050565b60008190508160005260206000209050919050565b60006020601f8301049050919050565b600082821b905092915050565b600060088302613fc97fffffffffffffffffffffffffffffffffffffffffffffffffffffffffffffffff82613f8c565b613fd38683613f8c565b95508019841693508086168417925050509392505050565b6000819050919050565b600061401061400b614006846130f7565b613feb565b6130f7565b9050919050565b6000819050919050565b61402a83613ff5565b61403e61403682614017565b848454613f99565b825550505050565b600090565b614053614046565b61405e818484614021565b505050565b5b818110156140825761407760008261404b565b600181019050614064565b5050565b601f8211156140c75761409881613f67565b6140a184613f7c565b810160208510156140b0578190505b6140c46140bc85613f7c565b830182614063565b50505b505050565b600082821c905092915050565b60006140ea600019846008026140cc565b1980831691505092915050565b600061410383836140d9565b9150826002028217905092915050565b61411c82613428565b67ffffffffffffffff8111156141355761413461368a565b5b61413f8254613d55565b61414a828285614086565b600060209050601f83116001811461417d576000841561416b578287015190505b61417585826140f7565b8655506141dd565b601f19841661418b86613f67565b60005b828110156141b35784890151825560018201915060208501945060208101905061418e565b868310156141d057848901516141cc601f8916826140d9565b8355505b6001600288020188555050505b50505050505056fea26469706673582212202e706723df4e38470a2348abcf4c4b5c86a29ffddcd5e6b3c3c69a8cc3ff226b64736f6c63430008110033",
  "linkReferences": {},
  "deployedLinkReferences": {}
}