{
  "_format": "hh-sol-artifact-1",
  "contractName": "landregistry",
  "sourceName": "contracts/landregistry.sol",
  "abi": [
    {
      "inputs": [],
      "stateMutability": "nonpayable",
      "type": "constructor"
    },
    {
      "anonymous": false,
      "inputs": [
        {
          "indexed": false,
          "internalType": "uint256",
          "name": "requestId",
          "type": "uint256"
        },
        {
          "indexed": false,
          "internalType": "uint256",
          "name": "landId",
          "type": "uint256"
        },
        {
          "indexed": false,
          "internalType": "uint256",
          "name": "amount",
          "type": "uint256"
        },
        {
          "indexed": false,
          "internalType": "uint256",
          "name": "price",
          "type": "uint256"
        }
      ],
      "name": "PaymentMade",
      "type": "event"
    },
    {
      "inputs": [
        {
          "internalType": "address",
          "name": "",
          "type": "address"
        }
      ],
      "name": "InspectorMapping",
      "outputs": [
        {
          "internalType": "uint256",
          "name": "id",
          "type": "uint256"
        },
        {
          "internalType": "address",
          "name": "_addr",
          "type": "address"
        },
        {
          "internalType": "string",
          "name": "name",
          "type": "string"
        },
        {
          "internalType": "uint256",
          "name": "age",
          "type": "uint256"
        },
        {
          "internalType": "string",
          "name": "designation",
          "type": "string"
        },
        {
          "internalType": "string",
          "name": "city",
          "type": "string"
        }
      ],
      "stateMutability": "view",
      "type": "function"
    },
    {
      "inputs": [
        {
          "internalType": "uint256",
          "name": "",
          "type": "uint256"
        }
      ],
      "name": "LandRequestMapping",
      "outputs": [
        {
          "internalType": "uint256",
          "name": "reqId",
          "type": "uint256"
        },
        {
          "internalType": "address payable",
          "name": "sellerId",
          "type": "address"
        },
        {
          "internalType": "address payable",
          "name": "buyerId",
          "type": "address"
        },
        {
          "internalType": "uint256",
          "name": "landId",
          "type": "uint256"
        },
        {
          "internalType": "enum landregistry.reqStatus",
          "name": "requestStatus",
          "type": "uint8"
        },
        {
          "internalType": "uint256",
          "name": "bidPrice",
          "type": "uint256"
        },
        {
          "internalType": "bool",
          "name": "isPaymentDone",
          "type": "bool"
        }
      ],
      "stateMutability": "view",
      "type": "function"
    },
    {
      "inputs": [],
      "name": "ReturnAllLandIncpectorList",
      "outputs": [
        {
          "internalType": "address[]",
          "name": "",
          "type": "address[]"
        }
      ],
      "stateMutability": "view",
      "type": "function"
    },
    {
      "inputs": [],
      "name": "ReturnAllLandList",
      "outputs": [
        {
          "internalType": "uint256[]",
          "name": "",
          "type": "uint256[]"
        }
      ],
      "stateMutability": "view",
      "type": "function"
    },
    {
      "inputs": [],
      "name": "ReturnAllUserList",
      "outputs": [
        {
          "internalType": "address[]",
          "name": "",
          "type": "address[]"
        }
      ],
      "stateMutability": "view",
      "type": "function"
    },
    {
      "inputs": [
        {
          "internalType": "address",
          "name": "",
          "type": "address"
        }
      ],
      "name": "UserMapping",
      "outputs": [
        {
          "internalType": "address",
          "name": "id",
          "type": "address"
        },
        {
          "internalType": "string",
          "name": "name",
          "type": "string"
        },
        {
          "internalType": "uint256",
          "name": "age",
          "type": "uint256"
        },
        {
          "internalType": "string",
          "name": "city",
          "type": "string"
        },
        {
          "internalType": "string",
          "name": "cinc",
          "type": "string"
        },
        {
          "internalType": "string",
          "name": "document",
          "type": "string"
        },
        {
          "internalType": "string",
          "name": "profilepic",
          "type": "string"
        },
        {
          "internalType": "string",
          "name": "email",
          "type": "string"
        },
        {
          "internalType": "bool",
          "name": "isUserVerified",
          "type": "bool"
        }
      ],
      "stateMutability": "view",
      "type": "function"
    },
    {
      "inputs": [
        {
          "internalType": "uint256",
          "name": "_requestId",
          "type": "uint256"
        }
      ],
      "name": "acceptRequest",
      "outputs": [],
      "stateMutability": "nonpayable",
      "type": "function"
    },
    {
      "inputs": [
        {
          "internalType": "uint256",
          "name": "_area",
          "type": "uint256"
        },
        {
          "internalType": "string",
          "name": "_address",
          "type": "string"
        },
        {
          "internalType": "uint256",
          "name": "landPrice",
          "type": "uint256"
        },
        {
          "internalType": "string",
          "name": "_allLatiLongi",
          "type": "string"
        },
        {
          "internalType": "uint256",
          "name": "_propertyPID",
          "type": "uint256"
        },
        {
          "internalType": "string",
          "name": "_surveyNum",
          "type": "string"
        },
        {
          "internalType": "string",
          "name": "_document",
          "type": "string"
        },
        {
          "internalType": "string",
          "name": "_landpic",
          "type": "string"
        }
      ],
      "name": "addLand",
      "outputs": [],
      "stateMutability": "nonpayable",
      "type": "function"
    },
    {
      "inputs": [
        {
          "internalType": "address",
          "name": "_addr",
          "type": "address"
        },
        {
          "internalType": "string",
          "name": "_name",
          "type": "string"
        },
        {
          "internalType": "uint256",
          "name": "_age",
          "type": "uint256"
        },
        {
          "internalType": "string",
          "name": "_designation",
          "type": "string"
        },
        {
          "internalType": "string",
          "name": "_city",
          "type": "string"
        }
      ],
      "name": "addLandInspector",
      "outputs": [
        {
          "internalType": "bool",
          "name": "",
          "type": "bool"
        }
      ],
      "stateMutability": "nonpayable",
      "type": "function"
    },
    {
      "inputs": [
        {
          "internalType": "address",
          "name": "_addr",
          "type": "address"
        }
      ],
      "name": "changeContractOwner",
      "outputs": [],
      "stateMutability": "nonpayable",
      "type": "function"
    },
    {
      "inputs": [
        {
          "internalType": "uint256",
          "name": "_landId",
          "type": "uint256"
        },
        {
          "internalType": "uint256",
          "name": "_newPrice",
          "type": "uint256"
        }
      ],
      "name": "changeLandPrice",
      "outputs": [],
      "stateMutability": "nonpayable",
      "type": "function"
    },
    {
      "inputs": [],
      "name": "documentId",
      "outputs": [
        {
          "internalType": "uint256",
          "name": "",
          "type": "uint256"
        }
      ],
      "stateMutability": "view",
      "type": "function"
    },
    {
      "inputs": [
        {
          "internalType": "uint256",
          "name": "id",
          "type": "uint256"
        }
      ],
      "name": "getLandPrice",
      "outputs": [
        {
          "internalType": "uint256",
          "name": "",
          "type": "uint256"
        }
      ],
      "stateMutability": "view",
      "type": "function"
    },
    {
      "inputs": [
        {
          "internalType": "address",
          "name": "_addr",
          "type": "address"
        }
      ],
      "name": "isContractOwner",
      "outputs": [
        {
          "internalType": "bool",
          "name": "",
          "type": "bool"
        }
      ],
      "stateMutability": "view",
      "type": "function"
    },
    {
      "inputs": [
        {
          "internalType": "address",
          "name": "_id",
          "type": "address"
        }
      ],
      "name": "isLandInspector",
      "outputs": [
        {
          "internalType": "bool",
          "name": "",
          "type": "bool"
        }
      ],
      "stateMutability": "view",
      "type": "function"
    },
    {
      "inputs": [
        {
          "internalType": "uint256",
          "name": "id",
          "type": "uint256"
        }
      ],
      "name": "isLandVerified",
      "outputs": [
        {
          "internalType": "bool",
          "name": "",
          "type": "bool"
        }
      ],
      "stateMutability": "view",
      "type": "function"
    },
    {
      "inputs": [
        {
          "internalType": "address",
          "name": "_addr",
          "type": "address"
        }
      ],
      "name": "isUserRegistered",
      "outputs": [
        {
          "internalType": "bool",
          "name": "",
          "type": "bool"
        }
      ],
      "stateMutability": "view",
      "type": "function"
    },
    {
      "inputs": [
        {
          "internalType": "address",
          "name": "id",
          "type": "address"
        }
      ],
      "name": "isUserVerified",
      "outputs": [
        {
          "internalType": "bool",
          "name": "",
          "type": "bool"
        }
      ],
      "stateMutability": "view",
      "type": "function"
    },
    {
      "inputs": [
        {
          "internalType": "uint256",
          "name": "",
          "type": "uint256"
        }
      ],
      "name": "lands",
      "outputs": [
        {
          "internalType": "uint256",
          "name": "id",
          "type": "uint256"
        },
        {
          "internalType": "uint256",
          "name": "area",
          "type": "uint256"
        },
        {
          "internalType": "string",
          "name": "landAddress",
          "type": "string"
        },
        {
          "internalType": "uint256",
          "name": "landPrice",
          "type": "uint256"
        },
        {
          "internalType": "string",
          "name": "allLatitudeLongitude",
          "type": "string"
        },
        {
          "internalType": "uint256",
          "name": "propertyPID",
          "type": "uint256"
        },
        {
          "internalType": "string",
          "name": "physicalSurveyNumber",
          "type": "string"
        },
        {
          "internalType": "string",
          "name": "document",
          "type": "string"
        },
        {
          "internalType": "string",
          "name": "Landpic",
          "type": "string"
        },
        {
          "internalType": "bool",
          "name": "isforSell",
          "type": "bool"
        },
        {
          "internalType": "address payable",
          "name": "ownerAddress",
          "type": "address"
        },
        {
          "internalType": "bool",
          "name": "isLandVerified",
          "type": "bool"
        }
      ],
      "stateMutability": "view",
      "type": "function"
    },
    {
      "inputs": [],
      "name": "landsCount",
      "outputs": [
        {
          "internalType": "uint256",
          "name": "",
          "type": "uint256"
        }
      ],
      "stateMutability": "view",
      "type": "function"
    },
    {
      "inputs": [
        {
          "internalType": "uint256",
          "name": "id",
          "type": "uint256"
        }
      ],
      "name": "makeItforSell",
      "outputs": [],
      "stateMutability": "nonpayable",
      "type": "function"
    },
    {
      "inputs": [
        {
          "internalType": "uint256",
          "name": "_requestId",
          "type": "uint256"
        }
      ],
      "name": "makePayment",
      "outputs": [],
      "stateMutability": "payable",
      "type": "function"
    },
    {
      "inputs": [
        {
          "internalType": "uint256",
          "name": "_requestId",
          "type": "uint256"
        }
      ],
      "name": "makePaymentOP",
      "outputs": [],
      "stateMutability": "payable",
      "type": "function"
    },
    {
      "inputs": [
        {
          "internalType": "address payable",
          "name": "_reveiver",
          "type": "address"
        }
      ],
      "name": "makePaymentTestFun",
      "outputs": [],
      "stateMutability": "payable",
      "type": "function"
    },
    {
      "inputs": [
        {
          "internalType": "address",
          "name": "id",
          "type": "address"
        }
      ],
      "name": "myAllLands",
      "outputs": [
        {
          "internalType": "uint256[]",
          "name": "",
          "type": "uint256[]"
        }
      ],
      "stateMutability": "view",
      "type": "function"
    },
    {
      "inputs": [],
      "name": "myReceivedLandRequests",
      "outputs": [
        {
          "internalType": "uint256[]",
          "name": "",
          "type": "uint256[]"
        }
      ],
      "stateMutability": "view",
      "type": "function"
    },
    {
      "inputs": [],
      "name": "mySentLandRequests",
      "outputs": [
        {
          "internalType": "uint256[]",
          "name": "",
          "type": "uint256[]"
        }
      ],
      "stateMutability": "view",
      "type": "function"
    },
    {
      "inputs": [
        {
          "internalType": "string",
          "name": "_name",
          "type": "string"
        },
        {
          "internalType": "uint256",
          "name": "_age",
          "type": "uint256"
        },
        {
          "internalType": "string",
          "name": "_city",
          "type": "string"
        },
        {
          "internalType": "string",
          "name": "_cinc",
          "type": "string"
        },
        {
          "internalType": "string",
          "name": "_document",
          "type": "string"
        },
        {
          "internalType": "string",
          "name": "_profilepic",
          "type": "string"
        },
        {
          "internalType": "string",
          "name": "_email",
          "type": "string"
        }
      ],
      "name": "registerUser",
      "outputs": [],
      "stateMutability": "nonpayable",
      "type": "function"
    },
    {
      "inputs": [
        {
          "internalType": "uint256",
          "name": "_requestId",
          "type": "uint256"
        }
      ],
      "name": "rejectRequest",
      "outputs": [],
      "stateMutability": "nonpayable",
      "type": "function"
    },
    {
      "inputs": [
        {
          "internalType": "address",
          "name": "_addr",
          "type": "address"
        }
      ],
      "name": "removeLandInspector",
      "outputs": [],
      "stateMutability": "nonpayable",
      "type": "function"
    },
    {
      "inputs": [
        {
          "internalType": "uint256",
          "name": "id",
          "type": "uint256"
        }
      ],
      "name": "requesteStatus",
      "outputs": [
        {
          "internalType": "bool",
          "name": "",
          "type": "bool"
        }
      ],
      "stateMutability": "view",
      "type": "function"
    },
    {
      "inputs": [
        {
          "internalType": "uint256",
          "name": "_landId",
          "type": "uint256"
        },
        {
          "internalType": "uint256",
          "name": "_bidPrice",
          "type": "uint256"
        }
      ],
      "name": "requestforBuyWithBid",
      "outputs": [],
      "stateMutability": "nonpayable",
      "type": "function"
    },
    {
      "inputs": [],
      "name": "returnPaymentDoneList",
      "outputs": [
        {
          "internalType": "uint256[]",
          "name": "",
          "type": "uint256[]"
        }
      ],
      "stateMutability": "view",
      "type": "function"
    },
    {
      "inputs": [
        {
          "internalType": "uint256",
          "name": "_requestId",
          "type": "uint256"
        },
        {
          "internalType": "string",
          "name": "documentUrl",
          "type": "string"
        }
      ],
      "name": "transferOwnership",
      "outputs": [
        {
          "internalType": "bool",
          "name": "",
          "type": "bool"
        }
      ],
      "stateMutability": "nonpayable",
      "type": "function"
    },
    {
      "inputs": [],
      "name": "userCount",
      "outputs": [
        {
          "internalType": "uint256",
          "name": "",
          "type": "uint256"
        }
      ],
      "stateMutability": "view",
      "type": "function"
    },
    {
      "inputs": [
        {
          "internalType": "uint256",
          "name": "_id",
          "type": "uint256"
        }
      ],
      "name": "verifyLand",
      "outputs": [],
      "stateMutability": "nonpayable",
      "type": "function"
    },
    {
      "inputs": [
        {
          "internalType": "address",
          "name": "_userId",
          "type": "address"
        }
      ],
      "name": "verifyUser",
      "outputs": [],
      "stateMutability": "nonpayable",
      "type": "function"
    }
  ],
  "bytecode": "0x608060405234801561001057600080fd5b50336000806101000a81548173ffffffffffffffffffffffffffffffffffffffff021916908373ffffffffffffffffffffffffffffffffffffffff160217905550614ee7806100606000396000f3fe60806040526004361061021a5760003560e01c8063995a8d9611610123578063d251839b116100ab578063e165af871161006f578063e165af8714610819578063e261f1e514610856578063edfbe2471461089e578063f9c43bdf146108c7578063fa024549146108f05761021a565b8063d251839b14610706578063d61ff68c14610731578063d8513de414610776578063d9bc25e0146107b3578063de117688146107dc5761021a565b8063ace417e0116100f2578063ace417e0146105e3578063b10a30ed14610620578063c26e11eb14610663578063c6dcdc371461068c578063d196ebf2146106c95761021a565b8063995a8d96146105485780639c32e3b4146105645780639dec448e1461058f578063a846fc8f146105b85761021a565b80634ba1f098116101a657806364efa0021161017557806364efa002146104385780636cbf6cf81461047a5780637517e00f146104b757806378f7c83f146104e057806397e8e8071461050b5761021a565b80634ba1f0981461039f5780634d813120146103c85780635114cb52146103f1578063553a998d1461040d5761021a565b806323393d77116101ed57806323393d77146102ce5780632d7788db146102f95780633ead67b514610322578063416f958f1461034b578063499701b2146103745761021a565b806307973ccf1461021f578063163f75221461024a5780631c9afd0f146102875780631f6ddf70146102b2575b600080fd5b34801561022b57600080fd5b5061023461092d565b604051610241919061399d565b60405180910390f35b34801561025657600080fd5b50610271600480360381019061026c9190613a2a565b610933565b60405161027e9190613a72565b60405180910390f35b34801561029357600080fd5b5061029c61099a565b6040516102a9919061399d565b60405180910390f35b6102cc60048036038101906102c79190613ab9565b6109a0565b005b3480156102da57600080fd5b506102e3610ba0565b6040516102f09190613ba4565b60405180910390f35b34801561030557600080fd5b50610320600480360381019061031b9190613ab9565b610c0a565b005b34801561032e57600080fd5b5061034960048036038101906103449190613a2a565b610cba565b005b34801561035757600080fd5b50610372600480360381019061036d9190613d0c565b610d8b565b005b34801561038057600080fd5b5061038961100d565b6040516103969190613ba4565b60405180910390f35b3480156103ab57600080fd5b506103c660048036038101906103c19190613ab9565b6110a2565b005b3480156103d457600080fd5b506103ef60048036038101906103ea9190613a2a565b6111b9565b005b61040b60048036038101906104069190613ab9565b611297565b005b34801561041957600080fd5b50610422611538565b60405161042f9190613f0c565b60405180910390f35b34801561044457600080fd5b5061045f600480360381019061045a9190613a2a565b6115d8565b60405161047196959493929190613fbc565b60405180910390f35b34801561048657600080fd5b506104a1600480360381019061049c9190613ab9565b6117cc565b6040516104ae9190613a72565b60405180910390f35b3480156104c357600080fd5b506104de60048036038101906104d99190613a2a565b6117f9565b005b3480156104ec57600080fd5b506104f5611b56565b604051610502919061399d565b60405180910390f35b34801561051757600080fd5b50610532600480360381019061052d9190613ab9565b611b5c565b60405161053f919061399d565b60405180910390f35b610562600480360381019061055d9190614070565b611b7c565b005b34801561057057600080fd5b50610579611bc6565b6040516105869190613ba4565b60405180910390f35b34801561059b57600080fd5b506105b660048036038101906105b1919061409d565b611c5b565b005b3480156105c457600080fd5b506105cd61203c565b6040516105da9190613ba4565b60405180910390f35b3480156105ef57600080fd5b5061060a60048036038101906106059190613a2a565b6120a6565b6040516106179190613a72565b60405180910390f35b34801561062c57600080fd5b5061064760048036038101906106429190613ab9565b6120ff565b60405161065a9796959493929190614163565b60405180910390f35b34801561066f57600080fd5b5061068a60048036038101906106859190613ab9565b61219b565b005b34801561069857600080fd5b506106b360048036038101906106ae91906141d2565b612283565b6040516106c09190613a72565b60405180910390f35b3480156106d557600080fd5b506106f060048036038101906106eb9190613a2a565b6125a5565b6040516106fd9190613ba4565b60405180910390f35b34801561071257600080fd5b5061071b61263c565b6040516107289190613f0c565b60405180910390f35b34801561073d57600080fd5b5061075860048036038101906107539190613a2a565b6126dc565b60405161076d999897969594939291906142a1565b60405180910390f35b34801561078257600080fd5b5061079d60048036038101906107989190613ab9565b612a87565b6040516107aa9190613a72565b60405180910390f35b3480156107bf57600080fd5b506107da60048036038101906107d5919061409d565b612ab4565b005b3480156107e857600080fd5b5061080360048036038101906107fe9190613a2a565b612bbf565b6040516108109190613a72565b60405180910390f35b34801561082557600080fd5b50610840600480360381019061083b9190613a2a565b612c28565b60405161084d9190613a72565b60405180910390f35b34801561086257600080fd5b5061087d60048036038101906108789190613ab9565b612c8f565b6040516108959c9b9a99989796959493929190614358565b60405180910390f35b3480156108aa57600080fd5b506108c560048036038101906108c09190614435565b612fd1565b005b3480156108d357600080fd5b506108ee60048036038101906108e99190613ab9565b6132fe565b005b3480156108fc57600080fd5b506109176004803603810190610912919061457f565b6133e6565b6040516109249190613a72565b60405180910390f35b60025481565b6000600c60008373ffffffffffffffffffffffffffffffffffffffff1673ffffffffffffffffffffffffffffffffffffffff16815260200190815260200160002060009054906101000a900460ff16156109905760019050610995565b600090505b919050565b60035481565b3373ffffffffffffffffffffffffffffffffffffffff16600f600083815260200190815260200160002060020160009054906101000a900473ffffffffffffffffffffffffffffffffffffffff1673ffffffffffffffffffffffffffffffffffffffff16148015610a58575060016004811115610a2057610a1f6140ec565b5b600f600083815260200190815260200160002060040160009054906101000a900460ff166004811115610a5657610a556140ec565b5b145b610a6157600080fd5b6003600f600083815260200190815260200160002060040160006101000a81548160ff02191690836004811115610a9b57610a9a6140ec565b5b0217905550600e6000600f600084815260200190815260200160002060030154815260200190815260200160002060090160019054906101000a900473ffffffffffffffffffffffffffffffffffffffff1673ffffffffffffffffffffffffffffffffffffffff166108fc349081150290604051600060405180830381858888f19350505050158015610b32573d6000803e3d6000fd5b506001600f600083815260200190815260200160002060060160006101000a81548160ff021916908315150217905550601360006001815260200190815260200160002081908060018154018082558091505060019003906000526020600020016000909190919091505550565b60606012600060018152602001908152602001600020805480602002602001604051908101604052809291908181526020018280548015610c0057602002820191906000526020600020905b815481526020019060010190808311610bec575b5050505050905090565b3373ffffffffffffffffffffffffffffffffffffffff16600f600083815260200190815260200160002060010160009054906101000a900473ffffffffffffffffffffffffffffffffffffffff1673ffffffffffffffffffffffffffffffffffffffff1614610c7857600080fd5b6002600f600083815260200190815260200160002060040160006101000a81548160ff02191690836004811115610cb257610cb16140ec565b5b021790555050565b60008054906101000a900473ffffffffffffffffffffffffffffffffffffffff1673ffffffffffffffffffffffffffffffffffffffff163373ffffffffffffffffffffffffffffffffffffffff1614610d48576040517f08c379a0000000000000000000000000000000000000000000000000000000008152600401610d3f90614627565b60405180910390fd5b806000806101000a81548173ffffffffffffffffffffffffffffffffffffffff021916908373ffffffffffffffffffffffffffffffffffffffff16021790555050565b610d94336120a6565b610d9d57600080fd5b60036000815480929190610db090614676565b919050555060405180610180016040528060035481526020018981526020018881526020018781526020018681526020018581526020018481526020018381526020018281526020016000151581526020013373ffffffffffffffffffffffffffffffffffffffff16815260200160001515815250600e6000600354815260200190815260200160002060008201518160000155602082015181600101556040820151816002019081610e6391906148ca565b50606082015181600301556080820151816004019081610e8391906148ca565b5060a0820151816005015560c0820151816006019081610ea391906148ca565b5060e0820151816007019081610eb991906148ca565b50610100820151816008019081610ed091906148ca565b506101208201518160090160006101000a81548160ff0219169083151502179055506101408201518160090160016101000a81548173ffffffffffffffffffffffffffffffffffffffff021916908373ffffffffffffffffffffffffffffffffffffffff1602179055506101608201518160090160156101000a81548160ff021916908315150217905550905050600d60003373ffffffffffffffffffffffffffffffffffffffff1673ffffffffffffffffffffffffffffffffffffffff1681526020019081526020016000206003549080600181540180825580915050600190039060005260206000200160009091909190915055601260006001815260200190815260200160002060035490806001815401808255809150506001900390600052602060002001600090919091909150555050505050505050565b6060601060003373ffffffffffffffffffffffffffffffffffffffff1673ffffffffffffffffffffffffffffffffffffffff16815260200190815260200160002080548060200260200160405190810160405280929190818152602001828054801561109857602002820191906000526020600020905b815481526020019060010190808311611084575b5050505050905090565b3373ffffffffffffffffffffffffffffffffffffffff16600f600083815260200190815260200160002060010160009054906101000a900473ffffffffffffffffffffffffffffffffffffffff1673ffffffffffffffffffffffffffffffffffffffff161461111057600080fd5b6000600f600083815260200190815260200160002060050154111561117757600f600082815260200190815260200160002060050154600e6000600f6000858152602001908152602001600020600301548152602001908152602001600020600301819055505b6001600f600083815260200190815260200160002060040160006101000a81548160ff021916908360048111156111b1576111b06140ec565b5b021790555050565b6111c233612c28565b6111cb57600080fd5b3373ffffffffffffffffffffffffffffffffffffffff168173ffffffffffffffffffffffffffffffffffffffff1603611239576040517f08c379a0000000000000000000000000000000000000000000000000000000008152600401611230906149e8565b60405180910390fd5b6001600960008373ffffffffffffffffffffffffffffffffffffffff1673ffffffffffffffffffffffffffffffffffffffff16815260200190815260200160002060080160006101000a81548160ff02191690831515021790555050565b3373ffffffffffffffffffffffffffffffffffffffff16600f600083815260200190815260200160002060020160009054906101000a900473ffffffffffffffffffffffffffffffffffffffff1673ffffffffffffffffffffffffffffffffffffffff1614801561134f575060016004811115611317576113166140ec565b5b600f600083815260200190815260200160002060040160009054906101000a900460ff16600481111561134d5761134c6140ec565b5b145b61135857600080fd5b6000600f60008381526020019081526020016000206003015490506000600e60008381526020019081526020016000206003015490508034146113d0576040517f08c379a00000000000000000000000000000000000000000000000000000000081526004016113c790614a7a565b60405180910390fd5b6003600f600085815260200190815260200160002060040160006101000a81548160ff0219169083600481111561140a576114096140ec565b5b0217905550600e600083815260200190815260200160002060090160019054906101000a900473ffffffffffffffffffffffffffffffffffffffff1673ffffffffffffffffffffffffffffffffffffffff166108fc349081150290604051600060405180830381858888f1935050505015801561148b573d6000803e3d6000fd5b506001600f600085815260200190815260200160002060060160006101000a81548160ff02191690831515021790555060136000600181526020019081526020016000208390806001815401808255809150506001900390600052602060002001600090919091909150557f95c4acf903eb698cf367efaaf79a8a58fb4554fcd8503b62af9f9c1b68b59e1e8383348460405161152b9493929190614a9a565b60405180910390a1505050565b6060600b6000600181526020019081526020016000208054806020026020016040519081016040528092919081815260200182805480156115ce57602002820191906000526020600020905b8160009054906101000a900473ffffffffffffffffffffffffffffffffffffffff1673ffffffffffffffffffffffffffffffffffffffff1681526020019060010190808311611584575b5050505050905090565b60066020528060005260406000206000915090508060000154908060010160009054906101000a900473ffffffffffffffffffffffffffffffffffffffff1690806002018054611627906146ed565b80601f0160208091040260200160405190810160405280929190818152602001828054611653906146ed565b80156116a05780601f10611675576101008083540402835291602001916116a0565b820191906000526020600020905b81548152906001019060200180831161168357829003601f168201915b5050505050908060030154908060040180546116bb906146ed565b80601f01602080910402602001604051908101604052809291908181526020018280546116e7906146ed565b80156117345780601f1061170957610100808354040283529160200191611734565b820191906000526020600020905b81548152906001019060200180831161171757829003601f168201915b505050505090806005018054611749906146ed565b80601f0160208091040260200160405190810160405280929190818152602001828054611775906146ed565b80156117c25780601f10611797576101008083540402835291602001916117c2565b820191906000526020600020905b8154815290600101906020018083116117a557829003601f168201915b5050505050905086565b6000600e600083815260200190815260200160002060090160159054906101000a900460ff169050919050565b60008054906101000a900473ffffffffffffffffffffffffffffffffffffffff1673ffffffffffffffffffffffffffffffffffffffff163373ffffffffffffffffffffffffffffffffffffffff1614611887576040517f08c379a000000000000000000000000000000000000000000000000000000000815260040161187e90614b2b565b60405180910390fd5b600860008273ffffffffffffffffffffffffffffffffffffffff1673ffffffffffffffffffffffffffffffffffffffff16815260200190815260200160002060009054906101000a900460ff16611913576040517f08c379a000000000000000000000000000000000000000000000000000000000815260040161190a90614b97565b60405180910390fd5b6000600860008373ffffffffffffffffffffffffffffffffffffffff1673ffffffffffffffffffffffffffffffffffffffff16815260200190815260200160002060006101000a81548160ff0219169083151502179055506000600760006001815260200190815260200160002080549050905060005b81811015611b51578273ffffffffffffffffffffffffffffffffffffffff16600760006001815260200190815260200160002082815481106119cf576119ce614bb7565b5b9060005260206000200160009054906101000a900473ffffffffffffffffffffffffffffffffffffffff1673ffffffffffffffffffffffffffffffffffffffff1603611b3e576007600060018152602001908152602001600020600183611a369190614be6565b81548110611a4757611a46614bb7565b5b9060005260206000200160009054906101000a900473ffffffffffffffffffffffffffffffffffffffff1660076000600181526020019081526020016000208281548110611a9857611a97614bb7565b5b9060005260206000200160006101000a81548173ffffffffffffffffffffffffffffffffffffffff021916908373ffffffffffffffffffffffffffffffffffffffff1602179055506007600060018152602001908152602001600020805480611b0457611b03614c1a565b5b6001900381819060005260206000200160006101000a81549073ffffffffffffffffffffffffffffffffffffffff02191690559055611b51565b8080611b4990614676565b91505061198a565b505050565b60045481565b6000600e6000838152602001908152602001600020600301549050919050565b8073ffffffffffffffffffffffffffffffffffffffff166108fc349081150290604051600060405180830381858888f19350505050158015611bc2573d6000803e3d6000fd5b5050565b6060601160003373ffffffffffffffffffffffffffffffffffffffff1673ffffffffffffffffffffffffffffffffffffffff168152602001908152602001600020805480602002602001604051908101604052809291908181526020018280548015611c5157602002820191906000526020600020905b815481526020019060010190808311611c3d575b5050505050905090565b611c64336120a6565b611c6d57600080fd5b611c76826117cc565b611cb5576040517f08c379a0000000000000000000000000000000000000000000000000000000008152600401611cac90614c95565b60405180910390fd5b600e600083815260200190815260200160002060090160019054906101000a900473ffffffffffffffffffffffffffffffffffffffff1673ffffffffffffffffffffffffffffffffffffffff163373ffffffffffffffffffffffffffffffffffffffff1603611d59576040517f08c379a0000000000000000000000000000000000000000000000000000000008152600401611d5090614d27565b60405180910390fd5b60056000815480929190611d6c90614676565b91905055506040518060e001604052806005548152602001600e600085815260200190815260200160002060090160019054906101000a900473ffffffffffffffffffffffffffffffffffffffff1673ffffffffffffffffffffffffffffffffffffffff1681526020013373ffffffffffffffffffffffffffffffffffffffff16815260200183815260200160006004811115611e0c57611e0b6140ec565b5b815260200182815260200160001515815250600f600060055481526020019081526020016000206000820151816000015560208201518160010160006101000a81548173ffffffffffffffffffffffffffffffffffffffff021916908373ffffffffffffffffffffffffffffffffffffffff16021790555060408201518160020160006101000a81548173ffffffffffffffffffffffffffffffffffffffff021916908373ffffffffffffffffffffffffffffffffffffffff1602179055506060820151816003015560808201518160040160006101000a81548160ff02191690836004811115611f0057611eff6140ec565b5b021790555060a0820151816005015560c08201518160060160006101000a81548160ff02191690831515021790555090505060106000600e600085815260200190815260200160002060090160019054906101000a900473ffffffffffffffffffffffffffffffffffffffff1673ffffffffffffffffffffffffffffffffffffffff1673ffffffffffffffffffffffffffffffffffffffff1681526020019081526020016000206005549080600181540180825580915050600190039060005260206000200160009091909190915055601160003373ffffffffffffffffffffffffffffffffffffffff1673ffffffffffffffffffffffffffffffffffffffff16815260200190815260200160002060055490806001815401808255809150506001900390600052602060002001600090919091909150555050565b6060601360006001815260200190815260200160002080548060200260200160405190810160405280929190818152602001828054801561209c57602002820191906000526020600020905b815481526020019060010190808311612088575b5050505050905090565b6000600960008373ffffffffffffffffffffffffffffffffffffffff1673ffffffffffffffffffffffffffffffffffffffff16815260200190815260200160002060080160009054906101000a900460ff169050919050565b600f6020528060005260406000206000915090508060000154908060010160009054906101000a900473ffffffffffffffffffffffffffffffffffffffff16908060020160009054906101000a900473ffffffffffffffffffffffffffffffffffffffff16908060030154908060040160009054906101000a900460ff16908060050154908060060160009054906101000a900460ff16905087565b3373ffffffffffffffffffffffffffffffffffffffff16600e600083815260200190815260200160002060090160019054906101000a900473ffffffffffffffffffffffffffffffffffffffff1673ffffffffffffffffffffffffffffffffffffffff161461220957600080fd5b612212816117cc565b612251576040517f08c379a000000000000000000000000000000000000000000000000000000000815260040161224890614c95565b60405180910390fd5b6001600e600083815260200190815260200160002060090160006101000a81548160ff02191690831515021790555050565b60008060009054906101000a900473ffffffffffffffffffffffffffffffffffffffff1673ffffffffffffffffffffffffffffffffffffffff163373ffffffffffffffffffffffffffffffffffffffff1614612314576040517f08c379a000000000000000000000000000000000000000000000000000000000815260040161230b90614b2b565b60405180910390fd5b60001515600860008873ffffffffffffffffffffffffffffffffffffffff1673ffffffffffffffffffffffffffffffffffffffff16815260200190815260200160002060009054906101000a900460ff161515146123a7576040517f08c379a000000000000000000000000000000000000000000000000000000000815260040161239e90614d93565b60405180910390fd5b6001600860008873ffffffffffffffffffffffffffffffffffffffff1673ffffffffffffffffffffffffffffffffffffffff16815260200190815260200160002060006101000a81548160ff0219169083151502179055506007600060018152602001908152602001600020869080600181540180825580915050600190039060005260206000200160009091909190916101000a81548173ffffffffffffffffffffffffffffffffffffffff021916908373ffffffffffffffffffffffffffffffffffffffff1602179055506040518060c0016040528060015481526020018773ffffffffffffffffffffffffffffffffffffffff16815260200186815260200185815260200184815260200183815250600660008873ffffffffffffffffffffffffffffffffffffffff1673ffffffffffffffffffffffffffffffffffffffff1681526020019081526020016000206000820151816000015560208201518160010160006101000a81548173ffffffffffffffffffffffffffffffffffffffff021916908373ffffffffffffffffffffffffffffffffffffffff160217905550604082015181600201908161255e91906148ca565b5060608201518160030155608082015181600401908161257e91906148ca565b5060a082015181600501908161259491906148ca565b509050506001905095945050505050565b6060600d60008373ffffffffffffffffffffffffffffffffffffffff1673ffffffffffffffffffffffffffffffffffffffff16815260200190815260200160002080548060200260200160405190810160405280929190818152602001828054801561263057602002820191906000526020600020905b81548152602001906001019080831161261c575b50505050509050919050565b606060076000600181526020019081526020016000208054806020026020016040519081016040528092919081815260200182805480156126d257602002820191906000526020600020905b8160009054906101000a900473ffffffffffffffffffffffffffffffffffffffff1673ffffffffffffffffffffffffffffffffffffffff1681526020019060010190808311612688575b5050505050905090565b60096020528060005260406000206000915090508060000160009054906101000a900473ffffffffffffffffffffffffffffffffffffffff1690806001018054612725906146ed565b80601f0160208091040260200160405190810160405280929190818152602001828054612751906146ed565b801561279e5780601f106127735761010080835404028352916020019161279e565b820191906000526020600020905b81548152906001019060200180831161278157829003601f168201915b5050505050908060020154908060030180546127b9906146ed565b80601f01602080910402602001604051908101604052809291908181526020018280546127e5906146ed565b80156128325780601f1061280757610100808354040283529160200191612832565b820191906000526020600020905b81548152906001019060200180831161281557829003601f168201915b505050505090806004018054612847906146ed565b80601f0160208091040260200160405190810160405280929190818152602001828054612873906146ed565b80156128c05780601f10612895576101008083540402835291602001916128c0565b820191906000526020600020905b8154815290600101906020018083116128a357829003601f168201915b5050505050908060050180546128d5906146ed565b80601f0160208091040260200160405190810160405280929190818152602001828054612901906146ed565b801561294e5780601f106129235761010080835404028352916020019161294e565b820191906000526020600020905b81548152906001019060200180831161293157829003601f168201915b505050505090806006018054612963906146ed565b80601f016020809104026020016040519081016040528092919081815260200182805461298f906146ed565b80156129dc5780601f106129b1576101008083540402835291602001916129dc565b820191906000526020600020905b8154815290600101906020018083116129bf57829003601f168201915b5050505050908060070180546129f1906146ed565b80601f0160208091040260200160405190810160405280929190818152602001828054612a1d906146ed565b8015612a6a5780601f10612a3f57610100808354040283529160200191612a6a565b820191906000526020600020905b815481529060010190602001808311612a4d57829003601f168201915b5050505050908060080160009054906101000a900460ff16905089565b6000600f600083815260200190815260200160002060060160009054906101000a900460ff169050919050565b612abd826117cc565b612afc576040517f08c379a0000000000000000000000000000000000000000000000000000000008152600401612af390614c95565b60405180910390fd5b3373ffffffffffffffffffffffffffffffffffffffff16600e600084815260200190815260200160002060090160019054906101000a900473ffffffffffffffffffffffffffffffffffffffff1673ffffffffffffffffffffffffffffffffffffffff1614612ba0576040517f08c379a0000000000000000000000000000000000000000000000000000000008152600401612b9790614e25565b60405180910390fd5b80600e6000848152602001908152602001600020600301819055505050565b60008060009054906101000a900473ffffffffffffffffffffffffffffffffffffffff1673ffffffffffffffffffffffffffffffffffffffff168273ffffffffffffffffffffffffffffffffffffffff1603612c1e5760019050612c23565b600090505b919050565b6000600860008373ffffffffffffffffffffffffffffffffffffffff1673ffffffffffffffffffffffffffffffffffffffff16815260200190815260200160002060009054906101000a900460ff1615612c855760019050612c8a565b600090505b919050565b600e602052806000526040600020600091509050806000015490806001015490806002018054612cbe906146ed565b80601f0160208091040260200160405190810160405280929190818152602001828054612cea906146ed565b8015612d375780601f10612d0c57610100808354040283529160200191612d37565b820191906000526020600020905b815481529060010190602001808311612d1a57829003601f168201915b505050505090806003015490806004018054612d52906146ed565b80601f0160208091040260200160405190810160405280929190818152602001828054612d7e906146ed565b8015612dcb5780601f10612da057610100808354040283529160200191612dcb565b820191906000526020600020905b815481529060010190602001808311612dae57829003601f168201915b505050505090806005015490806006018054612de6906146ed565b80601f0160208091040260200160405190810160405280929190818152602001828054612e12906146ed565b8015612e5f5780601f10612e3457610100808354040283529160200191612e5f565b820191906000526020600020905b815481529060010190602001808311612e4257829003601f168201915b505050505090806007018054612e74906146ed565b80601f0160208091040260200160405190810160405280929190818152602001828054612ea0906146ed565b8015612eed5780601f10612ec257610100808354040283529160200191612eed565b820191906000526020600020905b815481529060010190602001808311612ed057829003601f168201915b505050505090806008018054612f02906146ed565b80601f0160208091040260200160405190810160405280929190818152602001828054612f2e906146ed565b8015612f7b5780601f10612f5057610100808354040283529160200191612f7b565b820191906000526020600020905b815481529060010190602001808311612f5e57829003601f168201915b5050505050908060090160009054906101000a900460ff16908060090160019054906101000a900473ffffffffffffffffffffffffffffffffffffffff16908060090160159054906101000a900460ff1690508c565b60011515600c60003373ffffffffffffffffffffffffffffffffffffffff1673ffffffffffffffffffffffffffffffffffffffff16815260200190815260200160002060009054906101000a900460ff16151503156132f5576001600c60003373ffffffffffffffffffffffffffffffffffffffff1673ffffffffffffffffffffffffffffffffffffffff16815260200190815260200160002060006101000a81548160ff0219169083151502179055506002600081548092919061309590614676565b9190505550600b600060018152602001908152602001600020339080600181540180825580915050600190039060005260206000200160009091909190916101000a81548173ffffffffffffffffffffffffffffffffffffffff021916908373ffffffffffffffffffffffffffffffffffffffff16021790555033600a6000600254815260200190815260200160002060006101000a81548173ffffffffffffffffffffffffffffffffffffffff021916908373ffffffffffffffffffffffffffffffffffffffff1602179055506040518061012001604052803373ffffffffffffffffffffffffffffffffffffffff16815260200188815260200187815260200186815260200185815260200184815260200183815260200182815260200160001515815250600960003373ffffffffffffffffffffffffffffffffffffffff1673ffffffffffffffffffffffffffffffffffffffff16815260200190815260200160002060008201518160000160006101000a81548173ffffffffffffffffffffffffffffffffffffffff021916908373ffffffffffffffffffffffffffffffffffffffff160217905550602082015181600101908161325791906148ca565b5060408201518160020155606082015181600301908161327791906148ca565b50608082015181600401908161328d91906148ca565b5060a08201518160050190816132a391906148ca565b5060c08201518160060190816132b991906148ca565b5060e08201518160070190816132cf91906148ca565b506101008201518160080160006101000a81548160ff0219169083151502179055509050505b50505050505050565b61330733612c28565b801561337557503373ffffffffffffffffffffffffffffffffffffffff16600e600083815260200190815260200160002060090160019054906101000a900473ffffffffffffffffffffffffffffffffffffffff1673ffffffffffffffffffffffffffffffffffffffff1614155b6133b4576040517f08c379a00000000000000000000000000000000000000000000000000000000081526004016133ab90614e91565b60405180910390fd5b6001600e600083815260200190815260200160002060090160156101000a81548160ff02191690831515021790555050565b60006133f133612c28565b6133fa57600080fd5b60001515600f600085815260200190815260200160002060060160009054906101000a900460ff16151503613432576000905061397e565b6004600081548092919061344590614676565b91905055506004600f600085815260200190815260200160002060040160006101000a81548160ff02191690836004811115613484576134836140ec565b5b0217905550600d6000600f600086815260200190815260200160002060020160009054906101000a900473ffffffffffffffffffffffffffffffffffffffff1673ffffffffffffffffffffffffffffffffffffffff1673ffffffffffffffffffffffffffffffffffffffff168152602001908152602001600020600f60008581526020019081526020016000206003015490806001815401808255809150506001900390600052602060002001600090919091909150556000600d6000600f600087815260200190815260200160002060010160009054906101000a900473ffffffffffffffffffffffffffffffffffffffff1673ffffffffffffffffffffffffffffffffffffffff1673ffffffffffffffffffffffffffffffffffffffff16815260200190815260200160002080549050905060005b8181101561385757600f600086815260200190815260200160002060030154600d6000600f600089815260200190815260200160002060010160009054906101000a900473ffffffffffffffffffffffffffffffffffffffff1673ffffffffffffffffffffffffffffffffffffffff1673ffffffffffffffffffffffffffffffffffffffff168152602001908152602001600020828154811061366157613660614bb7565b5b90600052602060002001540361384457600d6000600f600088815260200190815260200160002060010160009054906101000a900473ffffffffffffffffffffffffffffffffffffffff1673ffffffffffffffffffffffffffffffffffffffff1673ffffffffffffffffffffffffffffffffffffffff1681526020019081526020016000206001836136f39190614be6565b8154811061370457613703614bb7565b5b9060005260206000200154600d6000600f600089815260200190815260200160002060010160009054906101000a900473ffffffffffffffffffffffffffffffffffffffff1673ffffffffffffffffffffffffffffffffffffffff1673ffffffffffffffffffffffffffffffffffffffff168152602001908152602001600020828154811061379657613795614bb7565b5b9060005260206000200181905550600d6000600f600088815260200190815260200160002060010160009054906101000a900473ffffffffffffffffffffffffffffffffffffffff1673ffffffffffffffffffffffffffffffffffffffff1673ffffffffffffffffffffffffffffffffffffffff16815260200190815260200160002080548061382957613828614c1a565b5b60019003818190600052602060002001600090559055613857565b808061384f90614676565b9150506135bb565b5082600e6000600f6000888152602001908152602001600020600301548152602001908152602001600020600701908161389191906148ca565b506000600e6000600f600088815260200190815260200160002060030154815260200190815260200160002060090160006101000a81548160ff021916908315150217905550600f600085815260200190815260200160002060020160009054906101000a900473ffffffffffffffffffffffffffffffffffffffff16600e6000600f600088815260200190815260200160002060030154815260200190815260200160002060090160016101000a81548173ffffffffffffffffffffffffffffffffffffffff021916908373ffffffffffffffffffffffffffffffffffffffff16021790555060019150505b92915050565b6000819050919050565b61399781613984565b82525050565b60006020820190506139b2600083018461398e565b92915050565b6000604051905090565b600080fd5b600080fd5b600073ffffffffffffffffffffffffffffffffffffffff82169050919050565b60006139f7826139cc565b9050919050565b613a07816139ec565b8114613a1257600080fd5b50565b600081359050613a24816139fe565b92915050565b600060208284031215613a4057613a3f6139c2565b5b6000613a4e84828501613a15565b91505092915050565b60008115159050919050565b613a6c81613a57565b82525050565b6000602082019050613a876000830184613a63565b92915050565b613a9681613984565b8114613aa157600080fd5b50565b600081359050613ab381613a8d565b92915050565b600060208284031215613acf57613ace6139c2565b5b6000613add84828501613aa4565b91505092915050565b600081519050919050565b600082825260208201905092915050565b6000819050602082019050919050565b613b1b81613984565b82525050565b6000613b2d8383613b12565b60208301905092915050565b6000602082019050919050565b6000613b5182613ae6565b613b5b8185613af1565b9350613b6683613b02565b8060005b83811015613b97578151613b7e8882613b21565b9750613b8983613b39565b925050600181019050613b6a565b5085935050505092915050565b60006020820190508181036000830152613bbe8184613b46565b905092915050565b600080fd5b600080fd5b6000601f19601f8301169050919050565b7f4e487b7100000000000000000000000000000000000000000000000000000000600052604160045260246000fd5b613c1982613bd0565b810181811067ffffffffffffffff82111715613c3857613c37613be1565b5b80604052505050565b6000613c4b6139b8565b9050613c578282613c10565b919050565b600067ffffffffffffffff821115613c7757613c76613be1565b5b613c8082613bd0565b9050602081019050919050565b82818337600083830152505050565b6000613caf613caa84613c5c565b613c41565b905082815260208101848484011115613ccb57613cca613bcb565b5b613cd6848285613c8d565b509392505050565b600082601f830112613cf357613cf2613bc6565b5b8135613d03848260208601613c9c565b91505092915050565b600080600080600080600080610100898b031215613d2d57613d2c6139c2565b5b6000613d3b8b828c01613aa4565b985050602089013567ffffffffffffffff811115613d5c57613d5b6139c7565b5b613d688b828c01613cde565b9750506040613d798b828c01613aa4565b965050606089013567ffffffffffffffff811115613d9a57613d996139c7565b5b613da68b828c01613cde565b9550506080613db78b828c01613aa4565b94505060a089013567ffffffffffffffff811115613dd857613dd76139c7565b5b613de48b828c01613cde565b93505060c089013567ffffffffffffffff811115613e0557613e046139c7565b5b613e118b828c01613cde565b92505060e089013567ffffffffffffffff811115613e3257613e316139c7565b5b613e3e8b828c01613cde565b9150509295985092959890939650565b600081519050919050565b600082825260208201905092915050565b6000819050602082019050919050565b613e83816139ec565b82525050565b6000613e958383613e7a565b60208301905092915050565b6000602082019050919050565b6000613eb982613e4e565b613ec38185613e59565b9350613ece83613e6a565b8060005b83811015613eff578151613ee68882613e89565b9750613ef183613ea1565b925050600181019050613ed2565b5085935050505092915050565b60006020820190508181036000830152613f268184613eae565b905092915050565b613f37816139ec565b82525050565b600081519050919050565b600082825260208201905092915050565b60005b83811015613f77578082015181840152602081019050613f5c565b60008484015250505050565b6000613f8e82613f3d565b613f988185613f48565b9350613fa8818560208601613f59565b613fb181613bd0565b840191505092915050565b600060c082019050613fd1600083018961398e565b613fde6020830188613f2e565b8181036040830152613ff08187613f83565b9050613fff606083018661398e565b81810360808301526140118185613f83565b905081810360a08301526140258184613f83565b9050979650505050505050565b600061403d826139cc565b9050919050565b61404d81614032565b811461405857600080fd5b50565b60008135905061406a81614044565b92915050565b600060208284031215614086576140856139c2565b5b60006140948482850161405b565b91505092915050565b600080604083850312156140b4576140b36139c2565b5b60006140c285828601613aa4565b92505060206140d385828601613aa4565b9150509250929050565b6140e681614032565b82525050565b7f4e487b7100000000000000000000000000000000000000000000000000000000600052602160045260246000fd5b6005811061412c5761412b6140ec565b5b50565b600081905061413d8261411b565b919050565b600061414d8261412f565b9050919050565b61415d81614142565b82525050565b600060e082019050614178600083018a61398e565b61418560208301896140dd565b61419260408301886140dd565b61419f606083018761398e565b6141ac6080830186614154565b6141b960a083018561398e565b6141c660c0830184613a63565b98975050505050505050565b600080600080600060a086880312156141ee576141ed6139c2565b5b60006141fc88828901613a15565b955050602086013567ffffffffffffffff81111561421d5761421c6139c7565b5b61422988828901613cde565b945050604061423a88828901613aa4565b935050606086013567ffffffffffffffff81111561425b5761425a6139c7565b5b61426788828901613cde565b925050608086013567ffffffffffffffff811115614288576142876139c7565b5b61429488828901613cde565b9150509295509295909350565b6000610120820190506142b7600083018c613f2e565b81810360208301526142c9818b613f83565b90506142d8604083018a61398e565b81810360608301526142ea8189613f83565b905081810360808301526142fe8188613f83565b905081810360a08301526143128187613f83565b905081810360c08301526143268186613f83565b905081810360e083015261433a8185613f83565b905061434a610100830184613a63565b9a9950505050505050505050565b60006101808201905061436e600083018f61398e565b61437b602083018e61398e565b818103604083015261438d818d613f83565b905061439c606083018c61398e565b81810360808301526143ae818b613f83565b90506143bd60a083018a61398e565b81810360c08301526143cf8189613f83565b905081810360e08301526143e38188613f83565b90508181036101008301526143f88187613f83565b9050614408610120830186613a63565b6144166101408301856140dd565b614424610160830184613a63565b9d9c50505050505050505050505050565b600080600080600080600060e0888a031215614454576144536139c2565b5b600088013567ffffffffffffffff811115614472576144716139c7565b5b61447e8a828b01613cde565b975050602061448f8a828b01613aa4565b965050604088013567ffffffffffffffff8111156144b0576144af6139c7565b5b6144bc8a828b01613cde565b955050606088013567ffffffffffffffff8111156144dd576144dc6139c7565b5b6144e98a828b01613cde565b945050608088013567ffffffffffffffff81111561450a576145096139c7565b5b6145168a828b01613cde565b93505060a088013567ffffffffffffffff811115614537576145366139c7565b5b6145438a828b01613cde565b92505060c088013567ffffffffffffffff811115614564576145636139c7565b5b6145708a828b01613cde565b91505092959891949750929550565b60008060408385031215614596576145956139c2565b5b60006145a485828601613aa4565b925050602083013567ffffffffffffffff8111156145c5576145c46139c7565b5b6145d185828601613cde565b9150509250929050565b7f796f7520617265206e6f7420636f6e74726163744f776e657200000000000000600082015250565b6000614611601983613f48565b915061461c826145db565b602082019050919050565b6000602082019050818103600083015261464081614604565b9050919050565b7f4e487b7100000000000000000000000000000000000000000000000000000000600052601160045260246000fd5b600061468182613984565b91507fffffffffffffffffffffffffffffffffffffffffffffffffffffffffffffffff82036146b3576146b2614647565b5b600182019050919050565b7f4e487b7100000000000000000000000000000000000000000000000000000000600052602260045260246000fd5b6000600282049050600182168061470557607f821691505b602082108103614718576147176146be565b5b50919050565b60008190508160005260206000209050919050565b60006020601f8301049050919050565b600082821b905092915050565b6000600883026147807fffffffffffffffffffffffffffffffffffffffffffffffffffffffffffffffff82614743565b61478a8683614743565b95508019841693508086168417925050509392505050565b6000819050919050565b60006147c76147c26147bd84613984565b6147a2565b613984565b9050919050565b6000819050919050565b6147e1836147ac565b6147f56147ed826147ce565b848454614750565b825550505050565b600090565b61480a6147fd565b6148158184846147d8565b505050565b5b818110156148395761482e600082614802565b60018101905061481b565b5050565b601f82111561487e5761484f8161471e565b61485884614733565b81016020851015614867578190505b61487b61487385614733565b83018261481a565b50505b505050565b600082821c905092915050565b60006148a160001984600802614883565b1980831691505092915050565b60006148ba8383614890565b9150826002028217905092915050565b6148d382613f3d565b67ffffffffffffffff8111156148ec576148eb613be1565b5b6148f682546146ed565b61490182828561483d565b600060209050601f8311600181146149345760008415614922578287015190505b61492c85826148ae565b865550614994565b601f1984166149428661471e565b60005b8281101561496a57848901518255600182019150602085019450602081019050614945565b868310156149875784890151614983601f891682614890565b8355505b6001600288020188555050505b505050505050565b7f43616e6e6f742076657269667920796f757273656c6600000000000000000000600082015250565b60006149d2601683613f48565b91506149dd8261499c565b602082019050919050565b60006020820190508181036000830152614a01816149c5565b9050919050565b7f416d6f756e742073656e74206973206e6f7420657175616c20746f206c616e6460008201527f2070726963650000000000000000000000000000000000000000000000000000602082015250565b6000614a64602683613f48565b9150614a6f82614a08565b604082019050919050565b60006020820190508181036000830152614a9381614a57565b9050919050565b6000608082019050614aaf600083018761398e565b614abc602083018661398e565b614ac9604083018561398e565b614ad6606083018461398e565b95945050505050565b7f596f7520617265206e6f7420636f6e74726163744f776e657200000000000000600082015250565b6000614b15601983613f48565b9150614b2082614adf565b602082019050919050565b60006020820190508181036000830152614b4481614b08565b9050919050565b7f4c616e6420496e73706563746f72206e6f7420666f756e640000000000000000600082015250565b6000614b81601883613f48565b9150614b8c82614b4b565b602082019050919050565b60006020820190508181036000830152614bb081614b74565b9050919050565b7f4e487b7100000000000000000000000000000000000000000000000000000000600052603260045260246000fd5b6000614bf182613984565b9150614bfc83613984565b9250828203905081811115614c1457614c13614647565b5b92915050565b7f4e487b7100000000000000000000000000000000000000000000000000000000600052603160045260246000fd5b7f4c616e64206973206e6f74207665726966696564207965740000000000000000600082015250565b6000614c7f601883613f48565b9150614c8a82614c49565b602082019050919050565b60006020820190508181036000830152614cae81614c72565b9050919050565b7f53656c6c65722063616e6e6f742073656e64206120627579207265717565737460008201527f20666f72207468656972206f776e206c616e6400000000000000000000000000602082015250565b6000614d11603383613f48565b9150614d1c82614cb5565b604082019050919050565b60006020820190508181036000830152614d4081614d04565b9050919050565b7f4e65772061646472657373000000000000000000000000000000000000000000600082015250565b6000614d7d600b83613f48565b9150614d8882614d47565b602082019050919050565b60006020820190508181036000830152614dac81614d70565b9050919050565b7f596f7520617265206e6f7420746865206f776e6572206f662074686973206c6160008201527f6e64000000000000000000000000000000000000000000000000000000000000602082015250565b6000614e0f602283613f48565b9150614e1a82614db3565b604082019050919050565b60006020820190508181036000830152614e3e81614e02565b9050919050565b7f43616e6e6f742076657269667920796f7572206f776e206c616e640000000000600082015250565b6000614e7b601b83613f48565b9150614e8682614e45565b602082019050919050565b60006020820190508181036000830152614eaa81614e6e565b905091905056fea26469706673582212205e4f3c36d24e0ba71c9b8de0965a6bd885dacb8c694e8fc897112f4c7fbe0d9a64736f6c63430008110033",
  "linkReferences": {},
  "deployedLinkReferences": {}
}