{
  "_format": "hh-sol-artifact-1",
  "contractName": "landregistry",
  "sourceName": "contracts/landregistry.sol",
  "abi": [
    {
      "inputs": [],
      "stateMutability": "nonpayable",
      "type": "constructor"
    },
    {
      "inputs": [
        {
          "internalType": "address",
          "name": "",
          "type": "address"
        }
      ],
      "name": "InspectorMapping",
      "outputs": [
        {
          "internalType": "uint256",
          "name": "id",
          "type": "uint256"
        },
        {
          "internalType": "address",
          "name": "_addr",
          "type": "address"
        },
        {
          "internalType": "string",
          "name": "name",
          "type": "string"
        },
        {
          "internalType": "uint256",
          "name": "age",
          "type": "uint256"
        },
        {
          "internalType": "string",
          "name": "designation",
          "type": "string"
        },
        {
          "internalType": "string",
          "name": "city",
          "type": "string"
        }
      ],
      "stateMutability": "view",
      "type": "function"
    },
    {
      "inputs": [
        {
          "internalType": "uint256",
          "name": "",
          "type": "uint256"
        }
      ],
      "name": "LandRequestMapping",
      "outputs": [
        {
          "internalType": "uint256",
          "name": "reqId",
          "type": "uint256"
        },
        {
          "internalType": "address payable",
          "name": "sellerId",
          "type": "address"
        },
        {
          "internalType": "address payable",
          "name": "buyerId",
          "type": "address"
        },
        {
          "internalType": "uint256",
          "name": "landId",
          "type": "uint256"
        },
        {
          "internalType": "enum landregistry.reqStatus",
          "name": "requestStatus",
          "type": "uint8"
        },
        {
          "internalType": "bool",
          "name": "isPaymentDone",
          "type": "bool"
        }
      ],
      "stateMutability": "view",
      "type": "function"
    },
    {
      "inputs": [],
      "name": "ReturnAllLandIncpectorList",
      "outputs": [
        {
          "internalType": "address[]",
          "name": "",
          "type": "address[]"
        }
      ],
      "stateMutability": "view",
      "type": "function"
    },
    {
      "inputs": [],
      "name": "ReturnAllLandList",
      "outputs": [
        {
          "internalType": "uint256[]",
          "name": "",
          "type": "uint256[]"
        }
      ],
      "stateMutability": "view",
      "type": "function"
    },
    {
      "inputs": [],
      "name": "ReturnAllUserList",
      "outputs": [
        {
          "internalType": "address[]",
          "name": "",
          "type": "address[]"
        }
      ],
      "stateMutability": "view",
      "type": "function"
    },
    {
      "inputs": [
        {
          "internalType": "address",
          "name": "",
          "type": "address"
        }
      ],
      "name": "UserMapping",
      "outputs": [
        {
          "internalType": "address",
          "name": "id",
          "type": "address"
        },
        {
          "internalType": "string",
          "name": "name",
          "type": "string"
        },
        {
          "internalType": "uint256",
          "name": "age",
          "type": "uint256"
        },
        {
          "internalType": "string",
          "name": "city",
          "type": "string"
        },
        {
          "internalType": "string",
          "name": "cinc",
          "type": "string"
        },
        {
          "internalType": "string",
          "name": "document",
          "type": "string"
        },
        {
          "internalType": "string",
          "name": "email",
          "type": "string"
        },
        {
          "internalType": "bool",
          "name": "isUserVerified",
          "type": "bool"
        }
      ],
      "stateMutability": "view",
      "type": "function"
    },
    {
      "inputs": [
        {
          "internalType": "uint256",
          "name": "_requestId",
          "type": "uint256"
        }
      ],
      "name": "acceptRequest",
      "outputs": [],
      "stateMutability": "nonpayable",
      "type": "function"
    },
    {
      "inputs": [
        {
          "internalType": "uint256",
          "name": "_area",
          "type": "uint256"
        },
        {
          "internalType": "string",
          "name": "_address",
          "type": "string"
        },
        {
          "internalType": "uint256",
          "name": "landPrice",
          "type": "uint256"
        },
        {
          "internalType": "string",
          "name": "_allLatiLongi",
          "type": "string"
        },
        {
          "internalType": "uint256",
          "name": "_propertyPID",
          "type": "uint256"
        },
        {
          "internalType": "string",
          "name": "_surveyNum",
          "type": "string"
        },
        {
          "internalType": "string",
          "name": "_document",
          "type": "string"
        }
      ],
      "name": "addLand",
      "outputs": [],
      "stateMutability": "nonpayable",
      "type": "function"
    },
    {
      "inputs": [
        {
          "internalType": "address",
          "name": "_addr",
          "type": "address"
        },
        {
          "internalType": "string",
          "name": "_name",
          "type": "string"
        },
        {
          "internalType": "uint256",
          "name": "_age",
          "type": "uint256"
        },
        {
          "internalType": "string",
          "name": "_designation",
          "type": "string"
        },
        {
          "internalType": "string",
          "name": "_city",
          "type": "string"
        }
      ],
      "name": "addLandInspector",
      "outputs": [
        {
          "internalType": "bool",
          "name": "",
          "type": "bool"
        }
      ],
      "stateMutability": "nonpayable",
      "type": "function"
    },
    {
      "inputs": [
        {
          "internalType": "address",
          "name": "_addr",
          "type": "address"
        }
      ],
      "name": "changeContractOwner",
      "outputs": [],
      "stateMutability": "nonpayable",
      "type": "function"
    },
    {
      "inputs": [],
      "name": "documentId",
      "outputs": [
        {
          "internalType": "uint256",
          "name": "",
          "type": "uint256"
        }
      ],
      "stateMutability": "view",
      "type": "function"
    },
    {
      "inputs": [
        {
          "internalType": "address",
          "name": "_addr",
          "type": "address"
        }
      ],
      "name": "isContractOwner",
      "outputs": [
        {
          "internalType": "bool",
          "name": "",
          "type": "bool"
        }
      ],
      "stateMutability": "view",
      "type": "function"
    },
    {
      "inputs": [
        {
          "internalType": "address",
          "name": "_id",
          "type": "address"
        }
      ],
      "name": "isLandInspector",
      "outputs": [
        {
          "internalType": "bool",
          "name": "",
          "type": "bool"
        }
      ],
      "stateMutability": "view",
      "type": "function"
    },
    {
      "inputs": [
        {
          "internalType": "uint256",
          "name": "id",
          "type": "uint256"
        }
      ],
      "name": "isLandVerified",
      "outputs": [
        {
          "internalType": "bool",
          "name": "",
          "type": "bool"
        }
      ],
      "stateMutability": "view",
      "type": "function"
    },
    {
      "inputs": [
        {
          "internalType": "address",
          "name": "_addr",
          "type": "address"
        }
      ],
      "name": "isUserRegistered",
      "outputs": [
        {
          "internalType": "bool",
          "name": "",
          "type": "bool"
        }
      ],
      "stateMutability": "view",
      "type": "function"
    },
    {
      "inputs": [
        {
          "internalType": "address",
          "name": "id",
          "type": "address"
        }
      ],
      "name": "isUserVerified",
      "outputs": [
        {
          "internalType": "bool",
          "name": "",
          "type": "bool"
        }
      ],
      "stateMutability": "view",
      "type": "function"
    },
    {
      "inputs": [
        {
          "internalType": "uint256",
          "name": "id",
          "type": "uint256"
        }
      ],
      "name": "landPrice",
      "outputs": [
        {
          "internalType": "uint256",
          "name": "",
          "type": "uint256"
        }
      ],
      "stateMutability": "view",
      "type": "function"
    },
    {
      "inputs": [
        {
          "internalType": "uint256",
          "name": "",
          "type": "uint256"
        }
      ],
      "name": "lands",
      "outputs": [
        {
          "internalType": "uint256",
          "name": "id",
          "type": "uint256"
        },
        {
          "internalType": "uint256",
          "name": "area",
          "type": "uint256"
        },
        {
          "internalType": "string",
          "name": "landAddress",
          "type": "string"
        },
        {
          "internalType": "uint256",
          "name": "landPrice",
          "type": "uint256"
        },
        {
          "internalType": "string",
          "name": "allLatitudeLongitude",
          "type": "string"
        },
        {
          "internalType": "uint256",
          "name": "propertyPID",
          "type": "uint256"
        },
        {
          "internalType": "string",
          "name": "physicalSurveyNumber",
          "type": "string"
        },
        {
          "internalType": "string",
          "name": "document",
          "type": "string"
        },
        {
          "internalType": "bool",
          "name": "isforSell",
          "type": "bool"
        },
        {
          "internalType": "address payable",
          "name": "ownerAddress",
          "type": "address"
        },
        {
          "internalType": "bool",
          "name": "isLandVerified",
          "type": "bool"
        }
      ],
      "stateMutability": "view",
      "type": "function"
    },
    {
      "inputs": [],
      "name": "landsCount",
      "outputs": [
        {
          "internalType": "uint256",
          "name": "",
          "type": "uint256"
        }
      ],
      "stateMutability": "view",
      "type": "function"
    },
    {
      "inputs": [
        {
          "internalType": "uint256",
          "name": "id",
          "type": "uint256"
        }
      ],
      "name": "makeItforSell",
      "outputs": [],
      "stateMutability": "nonpayable",
      "type": "function"
    },
    {
      "inputs": [
        {
          "internalType": "uint256",
          "name": "_requestId",
          "type": "uint256"
        }
      ],
      "name": "makePayment",
      "outputs": [],
      "stateMutability": "payable",
      "type": "function"
    },
    {
      "inputs": [
        {
          "internalType": "address payable",
          "name": "_reveiver",
          "type": "address"
        }
      ],
      "name": "makePaymentTestFun",
      "outputs": [],
      "stateMutability": "payable",
      "type": "function"
    },
    {
      "inputs": [
        {
          "internalType": "address",
          "name": "id",
          "type": "address"
        }
      ],
      "name": "myAllLands",
      "outputs": [
        {
          "internalType": "uint256[]",
          "name": "",
          "type": "uint256[]"
        }
      ],
      "stateMutability": "view",
      "type": "function"
    },
    {
      "inputs": [],
      "name": "myReceivedLandRequests",
      "outputs": [
        {
          "internalType": "uint256[]",
          "name": "",
          "type": "uint256[]"
        }
      ],
      "stateMutability": "view",
      "type": "function"
    },
    {
      "inputs": [],
      "name": "mySentLandRequests",
      "outputs": [
        {
          "internalType": "uint256[]",
          "name": "",
          "type": "uint256[]"
        }
      ],
      "stateMutability": "view",
      "type": "function"
    },
    {
      "inputs": [
        {
          "internalType": "string",
          "name": "_name",
          "type": "string"
        },
        {
          "internalType": "uint256",
          "name": "_age",
          "type": "uint256"
        },
        {
          "internalType": "string",
          "name": "_city",
          "type": "string"
        },
        {
          "internalType": "string",
          "name": "_cinc",
          "type": "string"
        },
        {
          "internalType": "string",
          "name": "_document",
          "type": "string"
        },
        {
          "internalType": "string",
          "name": "_email",
          "type": "string"
        }
      ],
      "name": "registerUser",
      "outputs": [],
      "stateMutability": "nonpayable",
      "type": "function"
    },
    {
      "inputs": [
        {
          "internalType": "uint256",
          "name": "_requestId",
          "type": "uint256"
        }
      ],
      "name": "rejectRequest",
      "outputs": [],
      "stateMutability": "nonpayable",
      "type": "function"
    },
    {
      "inputs": [
        {
          "internalType": "address",
          "name": "_addr",
          "type": "address"
        }
      ],
      "name": "removeLandInspector",
      "outputs": [],
      "stateMutability": "nonpayable",
      "type": "function"
    },
    {
      "inputs": [
        {
          "internalType": "uint256",
          "name": "id",
          "type": "uint256"
        }
      ],
      "name": "requesteStatus",
      "outputs": [
        {
          "internalType": "bool",
          "name": "",
          "type": "bool"
        }
      ],
      "stateMutability": "view",
      "type": "function"
    },
    {
      "inputs": [
        {
          "internalType": "uint256",
          "name": "_landId",
          "type": "uint256"
        }
      ],
      "name": "requestforBuy",
      "outputs": [],
      "stateMutability": "nonpayable",
      "type": "function"
    },
    {
      "inputs": [],
      "name": "returnPaymentDoneList",
      "outputs": [
        {
          "internalType": "uint256[]",
          "name": "",
          "type": "uint256[]"
        }
      ],
      "stateMutability": "view",
      "type": "function"
    },
    {
      "inputs": [
        {
          "internalType": "uint256",
          "name": "_requestId",
          "type": "uint256"
        },
        {
          "internalType": "string",
          "name": "documentUrl",
          "type": "string"
        }
      ],
      "name": "transferOwnership",
      "outputs": [
        {
          "internalType": "bool",
          "name": "",
          "type": "bool"
        }
      ],
      "stateMutability": "nonpayable",
      "type": "function"
    },
    {
      "inputs": [],
      "name": "userCount",
      "outputs": [
        {
          "internalType": "uint256",
          "name": "",
          "type": "uint256"
        }
      ],
      "stateMutability": "view",
      "type": "function"
    },
    {
      "inputs": [
        {
          "internalType": "uint256",
          "name": "_id",
          "type": "uint256"
        }
      ],
      "name": "verifyLand",
      "outputs": [],
      "stateMutability": "nonpayable",
      "type": "function"
    },
    {
      "inputs": [
        {
          "internalType": "address",
          "name": "_userId",
          "type": "address"
        }
      ],
      "name": "verifyUser",
      "outputs": [],
      "stateMutability": "nonpayable",
      "type": "function"
    }
  ],
  "bytecode": "0x608060405234801561001057600080fd5b50336000806101000a81548173ffffffffffffffffffffffffffffffffffffffff021916908373ffffffffffffffffffffffffffffffffffffffff1602179055506142b8806100606000396000f3fe6080604052600436106102045760003560e01c8063a38a229f11610118578063d3b368c0116100a0578063de1176881161006f578063de117688146107a8578063e165af87146107e5578063e261f1e514610822578063f9c43bdf14610869578063fa0245491461089257610204565b8063d3b368c0146106c1578063d61ff68c146106ea578063d72ca9ec1461072e578063d8513de41461076b57610204565b8063c26e11eb116100e7578063c26e11eb146105ca578063c6dcdc37146105f3578063ccfdc19b14610630578063d196ebf214610659578063d251839b1461069657610204565b8063a38a229f146104f7578063a846fc8f14610520578063ace417e01461054b578063b10a30ed1461058857610204565b80634d8131201161019b5780636cbf6cf81161016a5780636cbf6cf81461041f5780637517e00f1461045c57806378f7c83f14610485578063995a8d96146104b05780639c32e3b4146104cc57610204565b80634d8131201461036d5780635114cb5214610396578063553a998d146103b257806364efa002146103dd57610204565b80632d7788db116101d75780632d7788db146102c75780633ead67b5146102f0578063499701b2146103195780634ba1f0981461034457610204565b806307973ccf14610209578063163f7522146102345780631c9afd0f1461027157806323393d771461029c575b600080fd5b34801561021557600080fd5b5061021e6108cf565b60405161022b9190613188565b60405180910390f35b34801561024057600080fd5b5061025b60048036038101906102569190613215565b6108d5565b604051610268919061325d565b60405180910390f35b34801561027d57600080fd5b5061028661093c565b6040516102939190613188565b60405180910390f35b3480156102a857600080fd5b506102b1610942565b6040516102be9190613336565b60405180910390f35b3480156102d357600080fd5b506102ee60048036038101906102e99190613384565b6109ac565b005b3480156102fc57600080fd5b5061031760048036038101906103129190613215565b610a5c565b005b34801561032557600080fd5b5061032e610b2d565b60405161033b9190613336565b60405180910390f35b34801561035057600080fd5b5061036b60048036038101906103669190613384565b610bc2565b005b34801561037957600080fd5b50610394600480360381019061038f9190613215565b610c72565b005b6103b060048036038101906103ab9190613384565b610ce2565b005b3480156103be57600080fd5b506103c7610ee2565b6040516103d4919061346f565b60405180910390f35b3480156103e957600080fd5b5061040460048036038101906103ff9190613215565b610f82565b60405161041696959493929190613530565b60405180910390f35b34801561042b57600080fd5b5061044660048036038101906104419190613384565b611176565b604051610453919061325d565b60405180910390f35b34801561046857600080fd5b50610483600480360381019061047e9190613215565b6111a3565b005b34801561049157600080fd5b5061049a611500565b6040516104a79190613188565b60405180910390f35b6104ca60048036038101906104c591906135e4565b611506565b005b3480156104d857600080fd5b506104e1611550565b6040516104ee9190613336565b60405180910390f35b34801561050357600080fd5b5061051e60048036038101906105199190613746565b6115e5565b005b34801561052c57600080fd5b506105356118f4565b6040516105429190613336565b60405180910390f35b34801561055757600080fd5b50610572600480360381019061056d9190613215565b61195e565b60405161057f919061325d565b60405180910390f35b34801561059457600080fd5b506105af60048036038101906105aa9190613384565b6119b7565b6040516105c1969594939291906138e5565b60405180910390f35b3480156105d657600080fd5b506105f160048036038101906105ec9190613384565b611a4d565b005b3480156105ff57600080fd5b5061061a60048036038101906106159190613946565b611aed565b604051610627919061325d565b60405180910390f35b34801561063c57600080fd5b5061065760048036038101906106529190613a15565b611e0f565b005b34801561066557600080fd5b50610680600480360381019061067b9190613215565b612073565b60405161068d9190613336565b60405180910390f35b3480156106a257600080fd5b506106ab61210a565b6040516106b8919061346f565b60405180910390f35b3480156106cd57600080fd5b506106e860048036038101906106e39190613384565b6121aa565b005b3480156106f657600080fd5b50610711600480360381019061070c9190613215565b61249f565b604051610725989796959493929190613b27565b60405180910390f35b34801561073a57600080fd5b5061075560048036038101906107509190613384565b6127bc565b6040516107629190613188565b60405180910390f35b34801561077757600080fd5b50610792600480360381019061078d9190613384565b6127dc565b60405161079f919061325d565b60405180910390f35b3480156107b457600080fd5b506107cf60048036038101906107ca9190613215565b612809565b6040516107dc919061325d565b60405180910390f35b3480156107f157600080fd5b5061080c60048036038101906108079190613215565b612872565b604051610819919061325d565b60405180910390f35b34801561082e57600080fd5b5061084960048036038101906108449190613384565b6128d9565b6040516108609b9a99989796959493929190613bc8565b60405180910390f35b34801561087557600080fd5b50610890600480360381019061088b9190613384565b612b8d565b005b34801561089e57600080fd5b506108b960048036038101906108b49190613c8f565b612bd1565b6040516108c6919061325d565b60405180910390f35b60025481565b6000600c60008373ffffffffffffffffffffffffffffffffffffffff1673ffffffffffffffffffffffffffffffffffffffff16815260200190815260200160002060009054906101000a900460ff16156109325760019050610937565b600090505b919050565b60035481565b606060126000600181526020019081526020016000208054806020026020016040519081016040528092919081815260200182805480156109a257602002820191906000526020600020905b81548152602001906001019080831161098e575b5050505050905090565b3373ffffffffffffffffffffffffffffffffffffffff16600f600083815260200190815260200160002060010160009054906101000a900473ffffffffffffffffffffffffffffffffffffffff1673ffffffffffffffffffffffffffffffffffffffff1614610a1a57600080fd5b6002600f600083815260200190815260200160002060040160006101000a81548160ff02191690836004811115610a5457610a5361386e565b5b021790555050565b60008054906101000a900473ffffffffffffffffffffffffffffffffffffffff1673ffffffffffffffffffffffffffffffffffffffff163373ffffffffffffffffffffffffffffffffffffffff1614610aea576040517f08c379a0000000000000000000000000000000000000000000000000000000008152600401610ae190613d37565b60405180910390fd5b806000806101000a81548173ffffffffffffffffffffffffffffffffffffffff021916908373ffffffffffffffffffffffffffffffffffffffff16021790555050565b6060601060003373ffffffffffffffffffffffffffffffffffffffff1673ffffffffffffffffffffffffffffffffffffffff168152602001908152602001600020805480602002602001604051908101604052809291908181526020018280548015610bb857602002820191906000526020600020905b815481526020019060010190808311610ba4575b5050505050905090565b3373ffffffffffffffffffffffffffffffffffffffff16600f600083815260200190815260200160002060010160009054906101000a900473ffffffffffffffffffffffffffffffffffffffff1673ffffffffffffffffffffffffffffffffffffffff1614610c3057600080fd5b6001600f600083815260200190815260200160002060040160006101000a81548160ff02191690836004811115610c6a57610c6961386e565b5b021790555050565b610c7b33612872565b610c8457600080fd5b6001600960008373ffffffffffffffffffffffffffffffffffffffff1673ffffffffffffffffffffffffffffffffffffffff16815260200190815260200160002060070160006101000a81548160ff02191690831515021790555050565b3373ffffffffffffffffffffffffffffffffffffffff16600f600083815260200190815260200160002060020160009054906101000a900473ffffffffffffffffffffffffffffffffffffffff1673ffffffffffffffffffffffffffffffffffffffff16148015610d9a575060016004811115610d6257610d6161386e565b5b600f600083815260200190815260200160002060040160009054906101000a900460ff166004811115610d9857610d9761386e565b5b145b610da357600080fd5b6003600f600083815260200190815260200160002060040160006101000a81548160ff02191690836004811115610ddd57610ddc61386e565b5b0217905550600e6000600f600084815260200190815260200160002060030154815260200190815260200160002060080160019054906101000a900473ffffffffffffffffffffffffffffffffffffffff1673ffffffffffffffffffffffffffffffffffffffff166108fc349081150290604051600060405180830381858888f19350505050158015610e74573d6000803e3d6000fd5b506001600f600083815260200190815260200160002060040160016101000a81548160ff021916908315150217905550601360006001815260200190815260200160002081908060018154018082558091505060019003906000526020600020016000909190919091505550565b6060600b600060018152602001908152602001600020805480602002602001604051908101604052809291908181526020018280548015610f7857602002820191906000526020600020905b8160009054906101000a900473ffffffffffffffffffffffffffffffffffffffff1673ffffffffffffffffffffffffffffffffffffffff1681526020019060010190808311610f2e575b5050505050905090565b60066020528060005260406000206000915090508060000154908060010160009054906101000a900473ffffffffffffffffffffffffffffffffffffffff1690806002018054610fd190613d86565b80601f0160208091040260200160405190810160405280929190818152602001828054610ffd90613d86565b801561104a5780601f1061101f5761010080835404028352916020019161104a565b820191906000526020600020905b81548152906001019060200180831161102d57829003601f168201915b50505050509080600301549080600401805461106590613d86565b80601f016020809104026020016040519081016040528092919081815260200182805461109190613d86565b80156110de5780601f106110b3576101008083540402835291602001916110de565b820191906000526020600020905b8154815290600101906020018083116110c157829003601f168201915b5050505050908060050180546110f390613d86565b80601f016020809104026020016040519081016040528092919081815260200182805461111f90613d86565b801561116c5780601f106111415761010080835404028352916020019161116c565b820191906000526020600020905b81548152906001019060200180831161114f57829003601f168201915b5050505050905086565b6000600e600083815260200190815260200160002060080160159054906101000a900460ff169050919050565b60008054906101000a900473ffffffffffffffffffffffffffffffffffffffff1673ffffffffffffffffffffffffffffffffffffffff163373ffffffffffffffffffffffffffffffffffffffff1614611231576040517f08c379a000000000000000000000000000000000000000000000000000000000815260040161122890613e03565b60405180910390fd5b600860008273ffffffffffffffffffffffffffffffffffffffff1673ffffffffffffffffffffffffffffffffffffffff16815260200190815260200160002060009054906101000a900460ff166112bd576040517f08c379a00000000000000000000000000000000000000000000000000000000081526004016112b490613e6f565b60405180910390fd5b6000600860008373ffffffffffffffffffffffffffffffffffffffff1673ffffffffffffffffffffffffffffffffffffffff16815260200190815260200160002060006101000a81548160ff0219169083151502179055506000600760006001815260200190815260200160002080549050905060005b818110156114fb578273ffffffffffffffffffffffffffffffffffffffff166007600060018152602001908152602001600020828154811061137957611378613e8f565b5b9060005260206000200160009054906101000a900473ffffffffffffffffffffffffffffffffffffffff1673ffffffffffffffffffffffffffffffffffffffff16036114e85760076000600181526020019081526020016000206001836113e09190613eed565b815481106113f1576113f0613e8f565b5b9060005260206000200160009054906101000a900473ffffffffffffffffffffffffffffffffffffffff166007600060018152602001908152602001600020828154811061144257611441613e8f565b5b9060005260206000200160006101000a81548173ffffffffffffffffffffffffffffffffffffffff021916908373ffffffffffffffffffffffffffffffffffffffff16021790555060076000600181526020019081526020016000208054806114ae576114ad613f21565b5b6001900381819060005260206000200160006101000a81549073ffffffffffffffffffffffffffffffffffffffff021916905590556114fb565b80806114f390613f50565b915050611334565b505050565b60045481565b8073ffffffffffffffffffffffffffffffffffffffff166108fc349081150290604051600060405180830381858888f1935050505015801561154c573d6000803e3d6000fd5b5050565b6060601160003373ffffffffffffffffffffffffffffffffffffffff1673ffffffffffffffffffffffffffffffffffffffff1681526020019081526020016000208054806020026020016040519081016040528092919081815260200182805480156115db57602002820191906000526020600020905b8154815260200190600101908083116115c7575b5050505050905090565b60011515600c60003373ffffffffffffffffffffffffffffffffffffffff1673ffffffffffffffffffffffffffffffffffffffff16815260200190815260200160002060009054906101000a900460ff16151503156118ec576001600c60003373ffffffffffffffffffffffffffffffffffffffff1673ffffffffffffffffffffffffffffffffffffffff16815260200190815260200160002060006101000a81548160ff021916908315150217905550600260008154809291906116a990613f50565b9190505550600b600060018152602001908152602001600020339080600181540180825580915050600190039060005260206000200160009091909190916101000a81548173ffffffffffffffffffffffffffffffffffffffff021916908373ffffffffffffffffffffffffffffffffffffffff16021790555033600a6000600254815260200190815260200160002060006101000a81548173ffffffffffffffffffffffffffffffffffffffff021916908373ffffffffffffffffffffffffffffffffffffffff1602179055506040518061010001604052803373ffffffffffffffffffffffffffffffffffffffff16815260200187815260200186815260200185815260200184815260200183815260200182815260200160001515815250600960003373ffffffffffffffffffffffffffffffffffffffff1673ffffffffffffffffffffffffffffffffffffffff16815260200190815260200160002060008201518160000160006101000a81548173ffffffffffffffffffffffffffffffffffffffff021916908373ffffffffffffffffffffffffffffffffffffffff16021790555060208201518160010190816118659190614144565b506040820151816002015560608201518160030190816118859190614144565b50608082015181600401908161189b9190614144565b5060a08201518160050190816118b19190614144565b5060c08201518160060190816118c79190614144565b5060e08201518160070160006101000a81548160ff0219169083151502179055509050505b505050505050565b6060601360006001815260200190815260200160002080548060200260200160405190810160405280929190818152602001828054801561195457602002820191906000526020600020905b815481526020019060010190808311611940575b5050505050905090565b6000600960008373ffffffffffffffffffffffffffffffffffffffff1673ffffffffffffffffffffffffffffffffffffffff16815260200190815260200160002060070160009054906101000a900460ff169050919050565b600f6020528060005260406000206000915090508060000154908060010160009054906101000a900473ffffffffffffffffffffffffffffffffffffffff16908060020160009054906101000a900473ffffffffffffffffffffffffffffffffffffffff16908060030154908060040160009054906101000a900460ff16908060040160019054906101000a900460ff16905086565b3373ffffffffffffffffffffffffffffffffffffffff16600e600083815260200190815260200160002060080160019054906101000a900473ffffffffffffffffffffffffffffffffffffffff1673ffffffffffffffffffffffffffffffffffffffff1614611abb57600080fd5b6001600e600083815260200190815260200160002060080160006101000a81548160ff02191690831515021790555050565b60008060009054906101000a900473ffffffffffffffffffffffffffffffffffffffff1673ffffffffffffffffffffffffffffffffffffffff163373ffffffffffffffffffffffffffffffffffffffff1614611b7e576040517f08c379a0000000000000000000000000000000000000000000000000000000008152600401611b7590613e03565b60405180910390fd5b60001515600860008873ffffffffffffffffffffffffffffffffffffffff1673ffffffffffffffffffffffffffffffffffffffff16815260200190815260200160002060009054906101000a900460ff16151514611c11576040517f08c379a0000000000000000000000000000000000000000000000000000000008152600401611c0890614262565b60405180910390fd5b6001600860008873ffffffffffffffffffffffffffffffffffffffff1673ffffffffffffffffffffffffffffffffffffffff16815260200190815260200160002060006101000a81548160ff0219169083151502179055506007600060018152602001908152602001600020869080600181540180825580915050600190039060005260206000200160009091909190916101000a81548173ffffffffffffffffffffffffffffffffffffffff021916908373ffffffffffffffffffffffffffffffffffffffff1602179055506040518060c0016040528060015481526020018773ffffffffffffffffffffffffffffffffffffffff16815260200186815260200185815260200184815260200183815250600660008873ffffffffffffffffffffffffffffffffffffffff1673ffffffffffffffffffffffffffffffffffffffff1681526020019081526020016000206000820151816000015560208201518160010160006101000a81548173ffffffffffffffffffffffffffffffffffffffff021916908373ffffffffffffffffffffffffffffffffffffffff1602179055506040820151816002019081611dc89190614144565b50606082015181600301556080820151816004019081611de89190614144565b5060a0820151816005019081611dfe9190614144565b509050506001905095945050505050565b611e183361195e565b611e2157600080fd5b60036000815480929190611e3490613f50565b919050555060405180610160016040528060035481526020018881526020018781526020018681526020018581526020018481526020018381526020018281526020016000151581526020013373ffffffffffffffffffffffffffffffffffffffff16815260200160001515815250600e6000600354815260200190815260200160002060008201518160000155602082015181600101556040820151816002019081611ee19190614144565b50606082015181600301556080820151816004019081611f019190614144565b5060a0820151816005015560c0820151816006019081611f219190614144565b5060e0820151816007019081611f379190614144565b506101008201518160080160006101000a81548160ff0219169083151502179055506101208201518160080160016101000a81548173ffffffffffffffffffffffffffffffffffffffff021916908373ffffffffffffffffffffffffffffffffffffffff1602179055506101408201518160080160156101000a81548160ff021916908315150217905550905050600d60003373ffffffffffffffffffffffffffffffffffffffff1673ffffffffffffffffffffffffffffffffffffffff16815260200190815260200160002060035490806001815401808255809150506001900390600052602060002001600090919091909150556012600060018152602001908152602001600020600354908060018154018082558091505060019003906000526020600020016000909190919091505550505050505050565b6060600d60008373ffffffffffffffffffffffffffffffffffffffff1673ffffffffffffffffffffffffffffffffffffffff1681526020019081526020016000208054806020026020016040519081016040528092919081815260200182805480156120fe57602002820191906000526020600020905b8154815260200190600101908083116120ea575b50505050509050919050565b606060076000600181526020019081526020016000208054806020026020016040519081016040528092919081815260200182805480156121a057602002820191906000526020600020905b8160009054906101000a900473ffffffffffffffffffffffffffffffffffffffff1673ffffffffffffffffffffffffffffffffffffffff1681526020019060010190808311612156575b5050505050905090565b6121b33361195e565b80156121c457506121c381611176565b5b6121cd57600080fd5b600560008154809291906121e090613f50565b91905055506040518060c001604052806005548152602001600e600084815260200190815260200160002060080160019054906101000a900473ffffffffffffffffffffffffffffffffffffffff1673ffffffffffffffffffffffffffffffffffffffff1681526020013373ffffffffffffffffffffffffffffffffffffffff168152602001828152602001600060048111156122805761227f61386e565b5b815260200160001515815250600f600060055481526020019081526020016000206000820151816000015560208201518160010160006101000a81548173ffffffffffffffffffffffffffffffffffffffff021916908373ffffffffffffffffffffffffffffffffffffffff16021790555060408201518160020160006101000a81548173ffffffffffffffffffffffffffffffffffffffff021916908373ffffffffffffffffffffffffffffffffffffffff1602179055506060820151816003015560808201518160040160006101000a81548160ff0219169083600481111561236e5761236d61386e565b5b021790555060a08201518160040160016101000a81548160ff02191690831515021790555090505060106000600e600084815260200190815260200160002060080160019054906101000a900473ffffffffffffffffffffffffffffffffffffffff1673ffffffffffffffffffffffffffffffffffffffff1673ffffffffffffffffffffffffffffffffffffffff1681526020019081526020016000206005549080600181540180825580915050600190039060005260206000200160009091909190915055601160003373ffffffffffffffffffffffffffffffffffffffff1673ffffffffffffffffffffffffffffffffffffffff168152602001908152602001600020600554908060018154018082558091505060019003906000526020600020016000909190919091505550565b60096020528060005260406000206000915090508060000160009054906101000a900473ffffffffffffffffffffffffffffffffffffffff16908060010180546124e890613d86565b80601f016020809104026020016040519081016040528092919081815260200182805461251490613d86565b80156125615780601f1061253657610100808354040283529160200191612561565b820191906000526020600020905b81548152906001019060200180831161254457829003601f168201915b50505050509080600201549080600301805461257c90613d86565b80601f01602080910402602001604051908101604052809291908181526020018280546125a890613d86565b80156125f55780601f106125ca576101008083540402835291602001916125f5565b820191906000526020600020905b8154815290600101906020018083116125d857829003601f168201915b50505050509080600401805461260a90613d86565b80601f016020809104026020016040519081016040528092919081815260200182805461263690613d86565b80156126835780601f1061265857610100808354040283529160200191612683565b820191906000526020600020905b81548152906001019060200180831161266657829003601f168201915b50505050509080600501805461269890613d86565b80601f01602080910402602001604051908101604052809291908181526020018280546126c490613d86565b80156127115780601f106126e657610100808354040283529160200191612711565b820191906000526020600020905b8154815290600101906020018083116126f457829003601f168201915b50505050509080600601805461272690613d86565b80601f016020809104026020016040519081016040528092919081815260200182805461275290613d86565b801561279f5780601f106127745761010080835404028352916020019161279f565b820191906000526020600020905b81548152906001019060200180831161278257829003601f168201915b5050505050908060070160009054906101000a900460ff16905088565b6000600e6000838152602001908152602001600020600301549050919050565b6000600f600083815260200190815260200160002060040160019054906101000a900460ff169050919050565b60008060009054906101000a900473ffffffffffffffffffffffffffffffffffffffff1673ffffffffffffffffffffffffffffffffffffffff168273ffffffffffffffffffffffffffffffffffffffff1603612868576001905061286d565b600090505b919050565b6000600860008373ffffffffffffffffffffffffffffffffffffffff1673ffffffffffffffffffffffffffffffffffffffff16815260200190815260200160002060009054906101000a900460ff16156128cf57600190506128d4565b600090505b919050565b600e60205280600052604060002060009150905080600001549080600101549080600201805461290890613d86565b80601f016020809104026020016040519081016040528092919081815260200182805461293490613d86565b80156129815780601f1061295657610100808354040283529160200191612981565b820191906000526020600020905b81548152906001019060200180831161296457829003601f168201915b50505050509080600301549080600401805461299c90613d86565b80601f01602080910402602001604051908101604052809291908181526020018280546129c890613d86565b8015612a155780601f106129ea57610100808354040283529160200191612a15565b820191906000526020600020905b8154815290600101906020018083116129f857829003601f168201915b505050505090806005015490806006018054612a3090613d86565b80601f0160208091040260200160405190810160405280929190818152602001828054612a5c90613d86565b8015612aa95780601f10612a7e57610100808354040283529160200191612aa9565b820191906000526020600020905b815481529060010190602001808311612a8c57829003601f168201915b505050505090806007018054612abe90613d86565b80601f0160208091040260200160405190810160405280929190818152602001828054612aea90613d86565b8015612b375780601f10612b0c57610100808354040283529160200191612b37565b820191906000526020600020905b815481529060010190602001808311612b1a57829003601f168201915b5050505050908060080160009054906101000a900460ff16908060080160019054906101000a900473ffffffffffffffffffffffffffffffffffffffff16908060080160159054906101000a900460ff1690508b565b612b9633612872565b612b9f57600080fd5b6001600e600083815260200190815260200160002060080160156101000a81548160ff02191690831515021790555050565b6000612bdc33612872565b612be557600080fd5b60001515600f600085815260200190815260200160002060040160019054906101000a900460ff16151503612c1d5760009050613169565b60046000815480929190612c3090613f50565b91905055506004600f600085815260200190815260200160002060040160006101000a81548160ff02191690836004811115612c6f57612c6e61386e565b5b0217905550600d6000600f600086815260200190815260200160002060020160009054906101000a900473ffffffffffffffffffffffffffffffffffffffff1673ffffffffffffffffffffffffffffffffffffffff1673ffffffffffffffffffffffffffffffffffffffff168152602001908152602001600020600f60008581526020019081526020016000206003015490806001815401808255809150506001900390600052602060002001600090919091909150556000600d6000600f600087815260200190815260200160002060010160009054906101000a900473ffffffffffffffffffffffffffffffffffffffff1673ffffffffffffffffffffffffffffffffffffffff1673ffffffffffffffffffffffffffffffffffffffff16815260200190815260200160002080549050905060005b8181101561304257600f600086815260200190815260200160002060030154600d6000600f600089815260200190815260200160002060010160009054906101000a900473ffffffffffffffffffffffffffffffffffffffff1673ffffffffffffffffffffffffffffffffffffffff1673ffffffffffffffffffffffffffffffffffffffff1681526020019081526020016000208281548110612e4c57612e4b613e8f565b5b90600052602060002001540361302f57600d6000600f600088815260200190815260200160002060010160009054906101000a900473ffffffffffffffffffffffffffffffffffffffff1673ffffffffffffffffffffffffffffffffffffffff1673ffffffffffffffffffffffffffffffffffffffff168152602001908152602001600020600183612ede9190613eed565b81548110612eef57612eee613e8f565b5b9060005260206000200154600d6000600f600089815260200190815260200160002060010160009054906101000a900473ffffffffffffffffffffffffffffffffffffffff1673ffffffffffffffffffffffffffffffffffffffff1673ffffffffffffffffffffffffffffffffffffffff1681526020019081526020016000208281548110612f8157612f80613e8f565b5b9060005260206000200181905550600d6000600f600088815260200190815260200160002060010160009054906101000a900473ffffffffffffffffffffffffffffffffffffffff1673ffffffffffffffffffffffffffffffffffffffff1673ffffffffffffffffffffffffffffffffffffffff16815260200190815260200160002080548061301457613013613f21565b5b60019003818190600052602060002001600090559055613042565b808061303a90613f50565b915050612da6565b5082600e6000600f6000888152602001908152602001600020600301548152602001908152602001600020600701908161307c9190614144565b506000600e6000600f600088815260200190815260200160002060030154815260200190815260200160002060080160006101000a81548160ff021916908315150217905550600f600085815260200190815260200160002060020160009054906101000a900473ffffffffffffffffffffffffffffffffffffffff16600e6000600f600088815260200190815260200160002060030154815260200190815260200160002060080160016101000a81548173ffffffffffffffffffffffffffffffffffffffff021916908373ffffffffffffffffffffffffffffffffffffffff16021790555060019150505b92915050565b6000819050919050565b6131828161316f565b82525050565b600060208201905061319d6000830184613179565b92915050565b6000604051905090565b600080fd5b600080fd5b600073ffffffffffffffffffffffffffffffffffffffff82169050919050565b60006131e2826131b7565b9050919050565b6131f2816131d7565b81146131fd57600080fd5b50565b60008135905061320f816131e9565b92915050565b60006020828403121561322b5761322a6131ad565b5b600061323984828501613200565b91505092915050565b60008115159050919050565b61325781613242565b82525050565b6000602082019050613272600083018461324e565b92915050565b600081519050919050565b600082825260208201905092915050565b6000819050602082019050919050565b6132ad8161316f565b82525050565b60006132bf83836132a4565b60208301905092915050565b6000602082019050919050565b60006132e382613278565b6132ed8185613283565b93506132f883613294565b8060005b8381101561332957815161331088826132b3565b975061331b836132cb565b9250506001810190506132fc565b5085935050505092915050565b6000602082019050818103600083015261335081846132d8565b905092915050565b6133618161316f565b811461336c57600080fd5b50565b60008135905061337e81613358565b92915050565b60006020828403121561339a576133996131ad565b5b60006133a88482850161336f565b91505092915050565b600081519050919050565b600082825260208201905092915050565b6000819050602082019050919050565b6133e6816131d7565b82525050565b60006133f883836133dd565b60208301905092915050565b6000602082019050919050565b600061341c826133b1565b61342681856133bc565b9350613431836133cd565b8060005b8381101561346257815161344988826133ec565b975061345483613404565b925050600181019050613435565b5085935050505092915050565b600060208201905081810360008301526134898184613411565b905092915050565b61349a816131d7565b82525050565b600081519050919050565b600082825260208201905092915050565b60005b838110156134da5780820151818401526020810190506134bf565b60008484015250505050565b6000601f19601f8301169050919050565b6000613502826134a0565b61350c81856134ab565b935061351c8185602086016134bc565b613525816134e6565b840191505092915050565b600060c0820190506135456000830189613179565b6135526020830188613491565b818103604083015261356481876134f7565b90506135736060830186613179565b818103608083015261358581856134f7565b905081810360a083015261359981846134f7565b9050979650505050505050565b60006135b1826131b7565b9050919050565b6135c1816135a6565b81146135cc57600080fd5b50565b6000813590506135de816135b8565b92915050565b6000602082840312156135fa576135f96131ad565b5b6000613608848285016135cf565b91505092915050565b600080fd5b600080fd5b7f4e487b7100000000000000000000000000000000000000000000000000000000600052604160045260246000fd5b613653826134e6565b810181811067ffffffffffffffff821117156136725761367161361b565b5b80604052505050565b60006136856131a3565b9050613691828261364a565b919050565b600067ffffffffffffffff8211156136b1576136b061361b565b5b6136ba826134e6565b9050602081019050919050565b82818337600083830152505050565b60006136e96136e484613696565b61367b565b90508281526020810184848401111561370557613704613616565b5b6137108482856136c7565b509392505050565b600082601f83011261372d5761372c613611565b5b813561373d8482602086016136d6565b91505092915050565b60008060008060008060c08789031215613763576137626131ad565b5b600087013567ffffffffffffffff811115613781576137806131b2565b5b61378d89828a01613718565b965050602061379e89828a0161336f565b955050604087013567ffffffffffffffff8111156137bf576137be6131b2565b5b6137cb89828a01613718565b945050606087013567ffffffffffffffff8111156137ec576137eb6131b2565b5b6137f889828a01613718565b935050608087013567ffffffffffffffff811115613819576138186131b2565b5b61382589828a01613718565b92505060a087013567ffffffffffffffff811115613846576138456131b2565b5b61385289828a01613718565b9150509295509295509295565b613868816135a6565b82525050565b7f4e487b7100000000000000000000000000000000000000000000000000000000600052602160045260246000fd5b600581106138ae576138ad61386e565b5b50565b60008190506138bf8261389d565b919050565b60006138cf826138b1565b9050919050565b6138df816138c4565b82525050565b600060c0820190506138fa6000830189613179565b613907602083018861385f565b613914604083018761385f565b6139216060830186613179565b61392e60808301856138d6565b61393b60a083018461324e565b979650505050505050565b600080600080600060a08688031215613962576139616131ad565b5b600061397088828901613200565b955050602086013567ffffffffffffffff811115613991576139906131b2565b5b61399d88828901613718565b94505060406139ae8882890161336f565b935050606086013567ffffffffffffffff8111156139cf576139ce6131b2565b5b6139db88828901613718565b925050608086013567ffffffffffffffff8111156139fc576139fb6131b2565b5b613a0888828901613718565b9150509295509295909350565b600080600080600080600060e0888a031215613a3457613a336131ad565b5b6000613a428a828b0161336f565b975050602088013567ffffffffffffffff811115613a6357613a626131b2565b5b613a6f8a828b01613718565b9650506040613a808a828b0161336f565b955050606088013567ffffffffffffffff811115613aa157613aa06131b2565b5b613aad8a828b01613718565b9450506080613abe8a828b0161336f565b93505060a088013567ffffffffffffffff811115613adf57613ade6131b2565b5b613aeb8a828b01613718565b92505060c088013567ffffffffffffffff811115613b0c57613b0b6131b2565b5b613b188a828b01613718565b91505092959891949750929550565b600061010082019050613b3d600083018b613491565b8181036020830152613b4f818a6134f7565b9050613b5e6040830189613179565b8181036060830152613b7081886134f7565b90508181036080830152613b8481876134f7565b905081810360a0830152613b9881866134f7565b905081810360c0830152613bac81856134f7565b9050613bbb60e083018461324e565b9998505050505050505050565b600061016082019050613bde600083018e613179565b613beb602083018d613179565b8181036040830152613bfd818c6134f7565b9050613c0c606083018b613179565b8181036080830152613c1e818a6134f7565b9050613c2d60a0830189613179565b81810360c0830152613c3f81886134f7565b905081810360e0830152613c5381876134f7565b9050613c6361010083018661324e565b613c7161012083018561385f565b613c7f61014083018461324e565b9c9b505050505050505050505050565b60008060408385031215613ca657613ca56131ad565b5b6000613cb48582860161336f565b925050602083013567ffffffffffffffff811115613cd557613cd46131b2565b5b613ce185828601613718565b9150509250929050565b7f796f7520617265206e6f7420636f6e74726163744f776e657200000000000000600082015250565b6000613d216019836134ab565b9150613d2c82613ceb565b602082019050919050565b60006020820190508181036000830152613d5081613d14565b9050919050565b7f4e487b7100000000000000000000000000000000000000000000000000000000600052602260045260246000fd5b60006002820490506001821680613d9e57607f821691505b602082108103613db157613db0613d57565b5b50919050565b7f596f7520617265206e6f7420636f6e74726163744f776e657200000000000000600082015250565b6000613ded6019836134ab565b9150613df882613db7565b602082019050919050565b60006020820190508181036000830152613e1c81613de0565b9050919050565b7f4c616e6420496e73706563746f72206e6f7420666f756e640000000000000000600082015250565b6000613e596018836134ab565b9150613e6482613e23565b602082019050919050565b60006020820190508181036000830152613e8881613e4c565b9050919050565b7f4e487b7100000000000000000000000000000000000000000000000000000000600052603260045260246000fd5b7f4e487b7100000000000000000000000000000000000000000000000000000000600052601160045260246000fd5b6000613ef88261316f565b9150613f038361316f565b9250828203905081811115613f1b57613f1a613ebe565b5b92915050565b7f4e487b7100000000000000000000000000000000000000000000000000000000600052603160045260246000fd5b6000613f5b8261316f565b91507fffffffffffffffffffffffffffffffffffffffffffffffffffffffffffffffff8203613f8d57613f8c613ebe565b5b600182019050919050565b60008190508160005260206000209050919050565b60006020601f8301049050919050565b600082821b905092915050565b600060088302613ffa7fffffffffffffffffffffffffffffffffffffffffffffffffffffffffffffffff82613fbd565b6140048683613fbd565b95508019841693508086168417925050509392505050565b6000819050919050565b600061404161403c6140378461316f565b61401c565b61316f565b9050919050565b6000819050919050565b61405b83614026565b61406f61406782614048565b848454613fca565b825550505050565b600090565b614084614077565b61408f818484614052565b505050565b5b818110156140b3576140a860008261407c565b600181019050614095565b5050565b601f8211156140f8576140c981613f98565b6140d284613fad565b810160208510156140e1578190505b6140f56140ed85613fad565b830182614094565b50505b505050565b600082821c905092915050565b600061411b600019846008026140fd565b1980831691505092915050565b6000614134838361410a565b9150826002028217905092915050565b61414d826134a0565b67ffffffffffffffff8111156141665761416561361b565b5b6141708254613d86565b61417b8282856140b7565b600060209050601f8311600181146141ae576000841561419c578287015190505b6141a68582614128565b86555061420e565b601f1984166141bc86613f98565b60005b828110156141e4578489015182556001820191506020850194506020810190506141bf565b8683101561420157848901516141fd601f89168261410a565b8355505b6001600288020188555050505b505050505050565b7f4e65772061646472657373000000000000000000000000000000000000000000600082015250565b600061424c600b836134ab565b915061425782614216565b602082019050919050565b6000602082019050818103600083015261427b8161423f565b905091905056fea264697066735822122093100dc06036c5f50d2c26393b24d16b1e0c15242a7a1ad554f904ff1693cf9264736f6c63430008110033",
  "linkReferences": {},
  "deployedLinkReferences": {}
}