{
    "contractName": "Land",
    "abi": [
        {
            "inputs": [],
            "stateMutability": "nonpayable",
            "type": "constructor"
        },
        {
            "inputs": [
                {
                    "internalType": "address",
                    "name": "",
                    "type": "address"
                }
            ],
            "name": "InspectorMapping",
            "outputs": [
                {
                    "internalType": "uint256",
                    "name": "id",
                    "type": "uint256"
                },
                {
                    "internalType": "address",
                    "name": "_addr",
                    "type": "address"
                },
                {
                    "internalType": "string",
                    "name": "name",
                    "type": "string"
                },
                {
                    "internalType": "uint256",
                    "name": "age",
                    "type": "uint256"
                },
                {
                    "internalType": "string",
                    "name": "designation",
                    "type": "string"
                },
                {
                    "internalType": "string",
                    "name": "city",
                    "type": "string"
                }
            ],
            "stateMutability": "view",
            "type": "function"
        },
        {
            "inputs": [
                {
                    "internalType": "uint256",
                    "name": "",
                    "type": "uint256"
                }
            ],
            "name": "LandRequestMapping",
            "outputs": [
                {
                    "internalType": "uint256",
                    "name": "reqId",
                    "type": "uint256"
                },
                {
                    "internalType": "address payable",
                    "name": "sellerId",
                    "type": "address"
                },
                {
                    "internalType": "address payable",
                    "name": "buyerId",
                    "type": "address"
                },
                {
                    "internalType": "uint256",
                    "name": "landId",
                    "type": "uint256"
                },
                {
                    "internalType": "enum Land.reqStatus",
                    "name": "requestStatus",
                    "type": "uint8"
                },
                {
                    "internalType": "bool",
                    "name": "isPaymentDone",
                    "type": "bool"
                }
            ],
            "stateMutability": "view",
            "type": "function"
        },
        {
            "inputs": [],
            "name": "ReturnAllLandIncpectorList",
            "outputs": [
                {
                    "internalType": "address[]",
                    "name": "",
                    "type": "address[]"
                }
            ],
            "stateMutability": "view",
            "type": "function"
        },
        {
            "inputs": [],
            "name": "ReturnAllUserList",
            "outputs": [
                {
                    "internalType": "address[]",
                    "name": "",
                    "type": "address[]"
                }
            ],
            "stateMutability": "view",
            "type": "function"
        },
        {
            "inputs": [
                {
                    "internalType": "address",
                    "name": "",
                    "type": "address"
                }
            ],
            "name": "UserMapping",
            "outputs": [
                {
                    "internalType": "address",
                    "name": "id",
                    "type": "address"
                },
                {
                    "internalType": "string",
                    "name": "name",
                    "type": "string"
                },
                {
                    "internalType": "uint256",
                    "name": "age",
                    "type": "uint256"
                },
                {
                    "internalType": "string",
                    "name": "city",
                    "type": "string"
                },
                {
                    "internalType": "string",
                    "name": "aadharNumber",
                    "type": "string"
                },
                {
                    "internalType": "string",
                    "name": "panNumber",
                    "type": "string"
                },
                {
                    "internalType": "string",
                    "name": "document",
                    "type": "string"
                },
                {
                    "internalType": "string",
                    "name": "email",
                    "type": "string"
                },
                {
                    "internalType": "bool",
                    "name": "isUserVerified",
                    "type": "bool"
                }
            ],
            "stateMutability": "view",
            "type": "function"
        },
        {
            "inputs": [
                {
                    "internalType": "address",
                    "name": "_addr",
                    "type": "address"
                },
                {
                    "internalType": "string",
                    "name": "_name",
                    "type": "string"
                },
                {
                    "internalType": "uint256",
                    "name": "_age",
                    "type": "uint256"
                },
                {
                    "internalType": "string",
                    "name": "_designation",
                    "type": "string"
                },
                {
                    "internalType": "string",
                    "name": "_city",
                    "type": "string"
                }
            ],
            "name": "addLandInspector",
            "outputs": [
                {
                    "internalType": "bool",
                    "name": "",
                    "type": "bool"
                }
            ],
            "stateMutability": "nonpayable",
            "type": "function"
        },
        {
            "inputs": [
                {
                    "internalType": "address",
                    "name": "_addr",
                    "type": "address"
                }
            ],
            "name": "changeContractOwner",
            "outputs": [],
            "stateMutability": "nonpayable",
            "type": "function"
        },
        {
            "inputs": [],
            "name": "documentId",
            "outputs": [
                {
                    "internalType": "uint256",
                    "name": "",
                    "type": "uint256"
                }
            ],
            "stateMutability": "view",
            "type": "function"
        },
        {
            "inputs": [
                {
                    "internalType": "address",
                    "name": "_addr",
                    "type": "address"
                }
            ],
            "name": "isContractOwner",
            "outputs": [
                {
                    "internalType": "bool",
                    "name": "",
                    "type": "bool"
                }
            ],
            "stateMutability": "view",
            "type": "function"
        },
        {
            "inputs": [
                {
                    "internalType": "address",
                    "name": "_id",
                    "type": "address"
                }
            ],
            "name": "isLandInspector",
            "outputs": [
                {
                    "internalType": "bool",
                    "name": "",
                    "type": "bool"
                }
            ],
            "stateMutability": "view",
            "type": "function"
        },
        {
            "inputs": [
                {
                    "internalType": "address",
                    "name": "_addr",
                    "type": "address"
                }
            ],
            "name": "isUserRegistered",
            "outputs": [
                {
                    "internalType": "bool",
                    "name": "",
                    "type": "bool"
                }
            ],
            "stateMutability": "view",
            "type": "function"
        },
        {
            "inputs": [
                {
                    "internalType": "address",
                    "name": "id",
                    "type": "address"
                }
            ],
            "name": "isUserVerified",
            "outputs": [
                {
                    "internalType": "bool",
                    "name": "",
                    "type": "bool"
                }
            ],
            "stateMutability": "view",
            "type": "function"
        },
        {
            "inputs": [
                {
                    "internalType": "uint256",
                    "name": "",
                    "type": "uint256"
                }
            ],
            "name": "lands",
            "outputs": [
                {
                    "internalType": "uint256",
                    "name": "id",
                    "type": "uint256"
                },
                {
                    "internalType": "uint256",
                    "name": "area",
                    "type": "uint256"
                },
                {
                    "internalType": "string",
                    "name": "landAddress",
                    "type": "string"
                },
                {
                    "internalType": "uint256",
                    "name": "landPrice",
                    "type": "uint256"
                },
                {
                    "internalType": "string",
                    "name": "allLatitudeLongitude",
                    "type": "string"
                },
                {
                    "internalType": "uint256",
                    "name": "propertyPID",
                    "type": "uint256"
                },
                {
                    "internalType": "string",
                    "name": "physicalSurveyNumber",
                    "type": "string"
                },
                {
                    "internalType": "string",
                    "name": "document",
                    "type": "string"
                },
                {
                    "internalType": "bool",
                    "name": "isforSell",
                    "type": "bool"
                },
                {
                    "internalType": "address payable",
                    "name": "ownerAddress",
                    "type": "address"
                },
                {
                    "internalType": "bool",
                    "name": "isLandVerified",
                    "type": "bool"
                }
            ],
            "stateMutability": "view",
            "type": "function"
        },
        {
            "inputs": [],
            "name": "landsCount",
            "outputs": [
                {
                    "internalType": "uint256",
                    "name": "",
                    "type": "uint256"
                }
            ],
            "stateMutability": "view",
            "type": "function"
        },
        {
            "inputs": [
                {
                    "internalType": "string",
                    "name": "_name",
                    "type": "string"
                },
                {
                    "internalType": "uint256",
                    "name": "_age",
                    "type": "uint256"
                },
                {
                    "internalType": "string",
                    "name": "_city",
                    "type": "string"
                },
                {
                    "internalType": "string",
                    "name": "_aadharNumber",
                    "type": "string"
                },
                {
                    "internalType": "string",
                    "name": "_panNumber",
                    "type": "string"
                },
                {
                    "internalType": "string",
                    "name": "_document",
                    "type": "string"
                },
                {
                    "internalType": "string",
                    "name": "_email",
                    "type": "string"
                }
            ],
            "name": "registerUser",
            "outputs": [],
            "stateMutability": "nonpayable",
            "type": "function"
        },
        {
            "inputs": [
                {
                    "internalType": "address",
                    "name": "_addr",
                    "type": "address"
                }
            ],
            "name": "removeLandInspector",
            "outputs": [],
            "stateMutability": "nonpayable",
            "type": "function"
        },
        {
            "inputs": [],
            "name": "userCount",
            "outputs": [
                {
                    "internalType": "uint256",
                    "name": "",
                    "type": "uint256"
                }
            ],
            "stateMutability": "view",
            "type": "function"
        },
        {
            "inputs": [
                {
                    "internalType": "address",
                    "name": "_userId",
                    "type": "address"
                }
            ],
            "name": "verifyUser",
            "outputs": [],
            "stateMutability": "nonpayable",
            "type": "function"
        }
    ],
    "bytecode": "608060405234801561001057600080fd5b50600080546001600160a01b031916331790556119ff806100326000396000f3fe608060405234801561001057600080fd5b50600436106101165760003560e01c8063ace417e0116100a2578063d61ff68c11610071578063d61ff68c14610292578063de117688146102ba578063e165af87146102cd578063e261f1e5146102e0578063edfbe2471461030a57600080fd5b8063ace417e0146101e1578063b10a30ed14610210578063c6dcdc3714610277578063d251839b1461028a57600080fd5b80634d813120116100e95780634d81312014610178578063553a998d1461018b57806364efa002146101a05780637517e00f146101c557806378f7c83f146101d857600080fd5b806307973ccf1461011b578063163f7522146101375780631c9afd0f1461015a5780633ead67b514610163575b600080fd5b61012460025481565b6040519081526020015b60405180910390f35b61014a6101453660046112d7565b61031d565b604051901515815260200161012e565b61012460035481565b6101766101713660046112d7565b610353565b005b6101766101863660046112d7565b6103d4565b61019361040d565b60405161012e91906112f9565b6101b36101ae3660046112d7565b610497565b60405161012e9695949392919061138c565b6101766101d33660046112d7565b61066e565b61012460045481565b61014a6101ef3660046112d7565b6001600160a01b031660009081526009602052604090206008015460ff1690565b61026561021e3660046113ef565b600f602052600090815260409020805460018201546002830154600384015460049094015492936001600160a01b0392831693929091169160ff8082169161010090041686565b60405161012e96959493929190611408565b61014a610285366004611507565b6108d0565b610193610a1f565b6102a56102a03660046112d7565b610a95565b60405161012e999897969594939291906115aa565b61014a6102c83660046112d7565b610e19565b61014a6102db3660046112d7565b610e38565b6102f36102ee3660046113ef565b610e61565b60405161012e9b9a99989796959493929190611653565b6101766103183660046116ed565b6110e6565b6001600160a01b0381166000908152600c602052604081205460ff161561034657506001919050565b506000919050565b919050565b6000546001600160a01b031633146103b25760405162461bcd60e51b815260206004820152601960248201527f796f7520617265206e6f7420636f6e74726163744f776e65720000000000000060448201526064015b60405180910390fd5b600080546001600160a01b0319166001600160a01b0392909216919091179055565b6103dd33610e38565b6103e657600080fd5b6001600160a01b03166000908152600960205260409020600801805460ff19166001179055565b6001600052600b60209081527f72c6bfb7988af3a1efa6568f02a999bc52252641c659d85961ca3d372b57d5cf805460408051828502810185019091528181526060939092919083018282801561048d57602002820191906000526020600020905b81546001600160a01b0316815260019091019060200180831161046f575b5050505050905090565b60066020526000908152604090208054600182015460028301805492936001600160a01b03909216926104c9906117ed565b80601f01602080910402602001604051908101604052809291908181526020018280546104f5906117ed565b80156105425780601f1061051757610100808354040283529160200191610542565b820191906000526020600020905b81548152906001019060200180831161052557829003601f168201915b50505050509080600301549080600401805461055d906117ed565b80601f0160208091040260200160405190810160405280929190818152602001828054610589906117ed565b80156105d65780601f106105ab576101008083540402835291602001916105d6565b820191906000526020600020905b8154815290600101906020018083116105b957829003601f168201915b5050505050908060050180546105eb906117ed565b80601f0160208091040260200160405190810160405280929190818152602001828054610617906117ed565b80156106645780601f1061063957610100808354040283529160200191610664565b820191906000526020600020905b81548152906001019060200180831161064757829003601f168201915b5050505050905086565b6000546001600160a01b031633146106c85760405162461bcd60e51b815260206004820152601960248201527f596f7520617265206e6f7420636f6e74726163744f776e65720000000000000060448201526064016103a9565b6001600160a01b03811660009081526008602052604090205460ff166107305760405162461bcd60e51b815260206004820152601860248201527f4c616e6420496e73706563746f72206e6f7420666f756e64000000000000000060448201526064016103a9565b6001600160a01b03811660009081526008602090815260408220805460ff1916905560018252600790526000805160206119aa83398151915254905b818110156108cb57600160005260076020526000805160206119aa83398151915280546001600160a01b0385169190839081106107ab576107ab611827565b6000918252602090912001546001600160a01b0316036108b9576001600081905260076020526000805160206119aa833981519152906107eb9084611853565b815481106107fb576107fb611827565b60009182526020808320909101546001909252600790526000805160206119aa83398151915280546001600160a01b03909216918390811061083f5761083f611827565b600091825260208083209190910180546001600160a01b0319166001600160a01b03949094169390931790925560019052600790526000805160206119aa8339815191528054806108925761089261186c565b600082815260209020810160001990810180546001600160a01b0319169055019055505050565b806108c381611882565b91505061076c565b505050565b600080546001600160a01b031633146108eb57506000610a16565b6000546001600160a01b0316331461090257600080fd5b6001600160a01b0386811660008181526008602090815260408083208054600160ff1990911681179091556000805160206119aa83398151915280548083019091557fb2401e68d452ad3af4aed95d6e19d1a690ed00a9a5bee1b2b0a83b6028446a4f0180546001600160a01b03199081168717909155825160c081018452825481528085018781528185018e8152606083018e9052608083018d905260a083018c90529787526006909552929094208251815592519083018054909416951694909417909155905160028201906109da90826118e9565b5060608201516003820155608082015160048201906109f990826118e9565b5060a08201516005820190610a0e90826118e9565b506001925050505b95945050505050565b6001600052600760209081526000805160206119aa833981519152805460408051828502810185019091528181526060939092919083018282801561048d576020028201919060005260206000209081546001600160a01b0316815260019091019060200180831161046f575050505050905090565b600960205260009081526040902080546001820180546001600160a01b039092169291610ac1906117ed565b80601f0160208091040260200160405190810160405280929190818152602001828054610aed906117ed565b8015610b3a5780601f10610b0f57610100808354040283529160200191610b3a565b820191906000526020600020905b815481529060010190602001808311610b1d57829003601f168201915b505050505090806002015490806003018054610b55906117ed565b80601f0160208091040260200160405190810160405280929190818152602001828054610b81906117ed565b8015610bce5780601f10610ba357610100808354040283529160200191610bce565b820191906000526020600020905b815481529060010190602001808311610bb157829003601f168201915b505050505090806004018054610be3906117ed565b80601f0160208091040260200160405190810160405280929190818152602001828054610c0f906117ed565b8015610c5c5780601f10610c3157610100808354040283529160200191610c5c565b820191906000526020600020905b815481529060010190602001808311610c3f57829003601f168201915b505050505090806005018054610c71906117ed565b80601f0160208091040260200160405190810160405280929190818152602001828054610c9d906117ed565b8015610cea5780601f10610cbf57610100808354040283529160200191610cea565b820191906000526020600020905b815481529060010190602001808311610ccd57829003601f168201915b505050505090806006018054610cff906117ed565b80601f0160208091040260200160405190810160405280929190818152602001828054610d2b906117ed565b8015610d785780601f10610d4d57610100808354040283529160200191610d78565b820191906000526020600020905b815481529060010190602001808311610d5b57829003601f168201915b505050505090806007018054610d8d906117ed565b80601f0160208091040260200160405190810160405280929190818152602001828054610db9906117ed565b8015610e065780601f10610ddb57610100808354040283529160200191610e06565b820191906000526020600020905b815481529060010190602001808311610de957829003601f168201915b5050506008909301549192505060ff1689565b600080546001600160a01b039081169083160361034657506001919050565b6001600160a01b03811660009081526008602052604081205460ff161561034657506001919050565b600e6020526000908152604090208054600182015460028301805492939192610e89906117ed565b80601f0160208091040260200160405190810160405280929190818152602001828054610eb5906117ed565b8015610f025780601f10610ed757610100808354040283529160200191610f02565b820191906000526020600020905b815481529060010190602001808311610ee557829003601f168201915b505050505090806003015490806004018054610f1d906117ed565b80601f0160208091040260200160405190810160405280929190818152602001828054610f49906117ed565b8015610f965780601f10610f6b57610100808354040283529160200191610f96565b820191906000526020600020905b815481529060010190602001808311610f7957829003601f168201915b505050505090806005015490806006018054610fb1906117ed565b80601f0160208091040260200160405190810160405280929190818152602001828054610fdd906117ed565b801561102a5780601f10610fff5761010080835404028352916020019161102a565b820191906000526020600020905b81548152906001019060200180831161100d57829003601f168201915b50505050509080600701805461103f906117ed565b80601f016020809104026020016040519081016040528092919081815260200182805461106b906117ed565b80156110b85780601f1061108d576101008083540402835291602001916110b8565b820191906000526020600020905b81548152906001019060200180831161109b57829003601f168201915b5050506008909301549192505060ff808216916001600160a01b0361010082041691600160a81b909104168b565b336000908152600c602052604090205460ff161561110357600080fd5b336000908152600c60205260408120805460ff19166001179055600280549161112b83611882565b90915550507f72c6bfb7988af3a1efa6568f02a999bc52252641c659d85961ca3d372b57d5cf805460018082019092557ffc2858506235d5502cafdfae2dcc7804b97258f4d77357c39b0f2a32aa2e6a50018054336001600160a01b031991821681179092556002546000908152600a6020908152604080832080548516861790558051610120810182528581528083018e81528183018e9052606082018d9052608082018c905260a082018b905260c082018a905260e0820189905261010082018590529584526009909252909120815181549093166001600160a01b039093169290921782559151919290919082019061122790826118e9565b50604082015160028201556060820151600382019061124690826118e9565b506080820151600482019061125b90826118e9565b5060a0820151600582019061127090826118e9565b5060c0820151600682019061128590826118e9565b5060e0820151600782019061129a90826118e9565b5061010091909101516008909101805460ff191691151591909117905550505050505050565b80356001600160a01b038116811461034e57600080fd5b6000602082840312156112e957600080fd5b6112f2826112c0565b9392505050565b6020808252825182820181905260009190848201906040850190845b8181101561133a5783516001600160a01b031683529284019291840191600101611315565b50909695505050505050565b6000815180845260005b8181101561136c57602081850181015186830182015201611350565b506000602082860101526020601f19601f83011685010191505092915050565b8681526001600160a01b038616602082015260c0604082018190526000906113b690830187611346565b85606084015282810360808401526113ce8186611346565b905082810360a08401526113e28185611346565b9998505050505050505050565b60006020828403121561140157600080fd5b5035919050565b8681526001600160a01b038681166020830152851660408201526060810184905260c081016005841061144b57634e487b7160e01b600052602160045260246000fd5b83608083015282151560a0830152979650505050505050565b634e487b7160e01b600052604160045260246000fd5b600082601f83011261148b57600080fd5b813567ffffffffffffffff808211156114a6576114a6611464565b604051601f8301601f19908116603f011681019082821181831017156114ce576114ce611464565b816040528381528660208588010111156114e757600080fd5b836020870160208301376000602085830101528094505050505092915050565b600080600080600060a0868803121561151f57600080fd5b611528866112c0565b9450602086013567ffffffffffffffff8082111561154557600080fd5b61155189838a0161147a565b955060408801359450606088013591508082111561156e57600080fd5b61157a89838a0161147a565b9350608088013591508082111561159057600080fd5b5061159d8882890161147a565b9150509295509295909350565b6001600160a01b038a168152610120602082018190526000906115cf8382018c611346565b905089604084015282810360608401526115e9818a611346565b905082810360808401526115fd8189611346565b905082810360a08401526116118188611346565b905082810360c08401526116258187611346565b905082810360e08401526116398186611346565b9150508215156101008301529a9950505050505050505050565b60006101608d83528c60208401528060408401526116738184018d611346565b90508a6060840152828103608084015261168d818b611346565b90508860a084015282810360c08401526116a78189611346565b905082810360e08401526116bb8188611346565b95151561010084015250506001600160a01b039290921661012083015215156101409091015298975050505050505050565b600080600080600080600060e0888a03121561170857600080fd5b873567ffffffffffffffff8082111561172057600080fd5b61172c8b838c0161147a565b985060208a0135975060408a013591508082111561174957600080fd5b6117558b838c0161147a565b965060608a013591508082111561176b57600080fd5b6117778b838c0161147a565b955060808a013591508082111561178d57600080fd5b6117998b838c0161147a565b945060a08a01359150808211156117af57600080fd5b6117bb8b838c0161147a565b935060c08a01359150808211156117d157600080fd5b506117de8a828b0161147a565b91505092959891949750929550565b600181811c9082168061180157607f821691505b60208210810361182157634e487b7160e01b600052602260045260246000fd5b50919050565b634e487b7160e01b600052603260045260246000fd5b634e487b7160e01b600052601160045260246000fd5b818103818111156118665761186661183d565b92915050565b634e487b7160e01b600052603160045260246000fd5b6000600182016118945761189461183d565b5060010190565b601f8211156108cb57600081815260208120601f850160051c810160208610156118c25750805b601f850160051c820191505b818110156118e1578281556001016118ce565b505050505050565b815167ffffffffffffffff81111561190357611903611464565b6119178161191184546117ed565b8461189b565b602080601f83116001811461194c57600084156119345750858301515b600019600386901b1c1916600185901b1785556118e1565b600085815260208120601f198616915b8281101561197b5788860151825594840194600190910190840161195c565b50858210156119995787850151600019600388901b60f8161c191681555b5050505050600190811b0190555056feb39221ace053465ec3453ce2b36430bd138b997ecea25c1043da0c366812b828a26469706673582212202ddf5154aa9e4715a9f73f2d26ad7b419262762cee8a5d29102dfd44b8fd399a64736f6c63430008110033",
    "sourcePath": "/home/mohsin/Documents/GitHub/Final-Year-Project/contract/landcontract.sol",
    "compiler": {
        "name": "solc",
        "version": "0.8.17+commit.8df45f5f"
    },
    "functionHashes": {
        "InspectorMapping(address)": "64efa002",
        "LandRequestMapping(uint256)": "b10a30ed",
        "ReturnAllLandIncpectorList()": "d251839b",
        "ReturnAllUserList()": "553a998d",
        "UserMapping(address)": "d61ff68c",
        "addLandInspector(address,string,uint256,string,string)": "c6dcdc37",
        "changeContractOwner(address)": "3ead67b5",
        "documentId()": "78f7c83f",
        "isContractOwner(address)": "de117688",
        "isLandInspector(address)": "e165af87",
        "isUserRegistered(address)": "163f7522",
        "isUserVerified(address)": "ace417e0",
        "lands(uint256)": "e261f1e5",
        "landsCount()": "1c9afd0f",
        "registerUser(string,uint256,string,string,string,string,string)": "edfbe247",
        "removeLandInspector(address)": "7517e00f",
        "userCount()": "07973ccf",
        "verifyUser(address)": "4d813120"
    },
    "gasEstimates": {
        "creation": {
            "codeDepositCost": "1331000",
            "executionCost": "25618",
            "totalCost": "1356618"
        },
        "external": {
            "InspectorMapping(address)": "infinite",
            "LandRequestMapping(uint256)": "11204",
            "ReturnAllLandIncpectorList()": "infinite",
            "ReturnAllUserList()": "infinite",
            "UserMapping(address)": "infinite",
            "addLandInspector(address,string,uint256,string,string)": "infinite",
            "changeContractOwner(address)": "26801",
            "documentId()": "2395",
            "isContractOwner(address)": "2578",
            "isLandInspector(address)": "2657",
            "isUserRegistered(address)": "2637",
            "isUserVerified(address)": "2578",
            "lands(uint256)": "infinite",
            "landsCount()": "2352",
            "registerUser(string,uint256,string,string,string,string,string)": "infinite",
            "removeLandInspector(address)": "infinite",
            "userCount()": "2308",
            "verifyUser(address)": "26904"
        }
    }
}